{
  "_format": "hh-sol-artifact-1",
  "contractName": "Counter",
  "sourceName": "contracts/examples/Counter.sol",
  "abi": [
    {
      "inputs": [
        {
          "internalType": "address",
          "name": "moveCall_",
          "type": "address"
        }
      ],
      "stateMutability": "nonpayable",
      "type": "constructor"
    },
    {
      "inputs": [],
      "name": "getValue",
      "outputs": [
        {
          "internalType": "uint256",
          "name": "",
          "type": "uint256"
        }
      ],
      "stateMutability": "view",
      "type": "function"
    },
    {
      "inputs": [
        {
          "internalType": "uint64",
          "name": "",
          "type": "uint64"
        },
        {
          "internalType": "bytes32",
          "name": "",
          "type": "bytes32"
        },
        {
          "internalType": "bytes",
          "name": "payload",
          "type": "bytes"
        }
      ],
      "name": "moveCallMessage",
      "outputs": [],
      "stateMutability": "nonpayable",
      "type": "function"
    }
  ],
  "bytecode": "0x608034607057601f61028338819003918201601f19168301916001600160401b03831184841017607557808492602094604052833981010312607057516001600160a01b03811690819003607057600180546001600160a01b0319169190911790556040516101f7908161008c8239f35b600080fd5b634e487b7160e01b600052604160045260246000fdfe608080604052600436101561001357600080fd5b60003560e01c90816320965255146101a6575063cb32dbbe1461003557600080fd5b3461012d57606036600319011261012d5760043567ffffffffffffffff81160361012d5760443567ffffffffffffffff811161012d573660238201121561012d57806004013567ffffffffffffffff81116101905760405190601f8101601f19908116603f0116820167ffffffffffffffff811183821017610190576040528082526020820192366024838301011161012d578160009260246020930186378301015273ffffffffffffffffffffffffffffffffffffffff6001541633036101325780602091518101031261012d575160005490810180911161011757600055005b634e487b7160e01b600052601160045260246000fd5b600080fd5b60646040517f08c379a000000000000000000000000000000000000000000000000000000000815260206004820152600d60248201527f4f4e4c595f4d4f564543414c4c000000000000000000000000000000000000006044820152fd5b634e487b7160e01b600052604160045260246000fd5b3461012d57600036600319011261012d576020906000548152f3fea2646970667358221220ecca3106e6b98870667962cc1b5a156d4d8b1e80d8b338d65422d4faa715029064736f6c634300081c0033",
  "linkReferences": {},
  "deployedLinkReferences": {}
}