{
  "_format": "hh-sol-artifact-1",
  "contractName": "MessageBridge",
  "sourceName": "contracts/MessageBridge.sol",
  "abi": [
    {
      "inputs": [
        {
          "internalType": "address",
          "name": "moveCall_",
          "type": "address"
        },
        {
          "internalType": "uint256",
          "name": "fee_",
          "type": "uint256"
        }
      ],
      "stateMutability": "nonpayable",
      "type": "constructor"
    },
    {
      "inputs": [
        {
          "internalType": "address",
          "name": "owner",
          "type": "address"
        }
      ],
      "name": "OwnableInvalidOwner",
      "type": "error"
    },
    {
      "inputs": [
        {
          "internalType": "address",
          "name": "account",
          "type": "address"
        }
      ],
      "name": "OwnableUnauthorizedAccount",
      "type": "error"
    },
    {
      "anonymous": false,
      "inputs": [
        {
          "indexed": false,
          "internalType": "bytes32",
          "name": "offChainSignatureId",
          "type": "bytes32"
        },
        {
          "indexed": false,
          "internalType": "bytes32",
          "name": "sourceUid",
          "type": "bytes32"
        },
        {
          "indexed": false,
          "internalType": "uint64",
          "name": "sourceChain",
          "type": "uint64"
        },
        {
          "indexed": false,
          "internalType": "bytes32",
          "name": "from",
          "type": "bytes32"
        },
        {
          "indexed": false,
          "internalType": "address",
          "name": "to",
          "type": "address"
        }
      ],
      "name": "MessageReceived",
      "type": "event"
    },
    {
      "anonymous": false,
      "inputs": [
        {
          "indexed": false,
          "internalType": "bytes32",
          "name": "uid",
          "type": "bytes32"
        },
        {
          "indexed": false,
          "internalType": "uint64",
          "name": "toChain",
          "type": "uint64"
        },
        {
          "indexed": false,
          "internalType": "address",
          "name": "to",
          "type": "address"
        },
        {
          "indexed": false,
          "internalType": "bytes",
          "name": "payload",
          "type": "bytes"
        }
      ],
      "name": "MessageSent",
      "type": "event"
    },
    {
      "anonymous": false,
      "inputs": [
        {
          "indexed": true,
          "internalType": "address",
          "name": "previousOwner",
          "type": "address"
        },
        {
          "indexed": true,
          "internalType": "address",
          "name": "newOwner",
          "type": "address"
        }
      ],
      "name": "OwnershipTransferred",
      "type": "event"
    },
    {
      "inputs": [],
      "name": "owner",
      "outputs": [
        {
          "internalType": "address",
          "name": "",
          "type": "address"
        }
      ],
      "stateMutability": "view",
      "type": "function"
    },
    {
      "inputs": [
        {
          "internalType": "bytes32",
          "name": "offChainSignatureId",
          "type": "bytes32"
        },
        {
          "internalType": "bytes32",
          "name": "sourceUid",
          "type": "bytes32"
        },
        {
          "internalType": "uint64",
          "name": "sourceChain",
          "type": "uint64"
        },
        {
          "internalType": "bytes32",
          "name": "from",
          "type": "bytes32"
        },
        {
          "internalType": "address",
          "name": "to",
          "type": "address"
        },
        {
          "internalType": "bytes",
          "name": "payload",
          "type": "bytes"
        }
      ],
      "name": "receiveMessage",
      "outputs": [],
      "stateMutability": "nonpayable",
      "type": "function"
    },
    {
      "inputs": [],
      "name": "renounceOwnership",
      "outputs": [],
      "stateMutability": "nonpayable",
      "type": "function"
    },
    {
      "inputs": [
        {
          "internalType": "uint64",
          "name": "toChain",
          "type": "uint64"
        },
        {
          "internalType": "address",
          "name": "to",
          "type": "address"
        },
        {
          "internalType": "bytes",
          "name": "payload",
          "type": "bytes"
        }
      ],
      "name": "sendMessage",
      "outputs": [
        {
          "internalType": "bytes32",
          "name": "uid",
          "type": "bytes32"
        }
      ],
      "stateMutability": "payable",
      "type": "function"
    },
    {
      "inputs": [
        {
          "internalType": "address",
          "name": "newOwner",
          "type": "address"
        }
      ],
      "name": "transferOwnership",
      "outputs": [],
      "stateMutability": "nonpayable",
      "type": "function"
    }
  ],
  "bytecode": "0x60803460da57601f6106c738819003918201601f19168301916001600160401b0383118484101760df57808492604094855283398101031260da5780516001600160a01b038116919082900360da576020015190331560c45760008054336001600160a01b0319821681178355604051949290916001600160a01b0316907f8be0079c531659141344cd1fd0a4f28419497f9722a3daafe3b4186f6b6457e09080a3600155600380546001600160a01b0319169190911790556105d190816100f68239f35b631e4fbdf760e01b600052600060045260246000fd5b600080fd5b634e487b7160e01b600052604160045260246000fdfe6080604052600436101561001257600080fd5b6000803560e01c80634a10ce9d146102e1578063715018a61461027b5780638da5cb5b14610255578063b90b8352146101065763f2fde38b1461005457600080fd5b34610103576020366003190112610103576004356001600160a01b03811680910361010157610081610559565b80156100d5576001600160a01b0382548273ffffffffffffffffffffffffffffffffffffffff198216178455167f8be0079c531659141344cd1fd0a4f28419497f9722a3daafe3b4186f6b6457e08380a380f35b6024827f1e4fbdf700000000000000000000000000000000000000000000000000000000815280600452fd5b505b80fd5b5060603660031901126101035760043567ffffffffffffffff811680910361010157602435906001600160a01b0382168092036102515760443567ffffffffffffffff811161024d5761015d9036906004016104bc565b916001543411610209577f2b046eaedd72143b31efbfc1753f3e57682918353770498fae99edbc3d83759690600254926101d86040516020810190868252336040820152604081526101b0606082610484565b5190209560405193849388855260208501526040840152608060608401526080830190610518565b0390a1600181018091116101f55760209250600255604051908152f35b602483634e487b7160e01b81526011600452fd5b606460405162461bcd60e51b815260206004820152601060248201527f494e53554646494349454e5420464545000000000000000000000000000000006044820152fd5b8380fd5b8280fd5b50346101035780600319360112610103576001600160a01b036020915416604051908152f35b5034610103578060031936011261010357610294610559565b806001600160a01b03815473ffffffffffffffffffffffffffffffffffffffff1981168355167f8be0079c531659141344cd1fd0a4f28419497f9722a3daafe3b4186f6b6457e08280a380f35b50346101035760c03660031901126101035760243560443567ffffffffffffffff811680910361025157606435608435916001600160a01b0383168093036104805760a43567ffffffffffffffff811161047c576103439036906004016104bc565b85843b156101035761039691604051809381927fcb32dbbe000000000000000000000000000000000000000000000000000000008352866004840152876024840152606060448401526064830190610518565b038183885af180156104715761045d575b50838552600460205260ff604086205416610419577f9934993be4bf5f17b4e88a5ef778d33259d95262df4aa9d838e9b72fe4a8eec79260a092604051926004358452866020850152604084015260608301526080820152a18152600460205260408120805460ff1916600117905580f35b606460405162461bcd60e51b815260206004820152601060248201527f414c52454144595f5245434549564544000000000000000000000000000000006044820152fd5b8561046a91969296610484565b93386103a7565b6040513d88823e3d90fd5b8580fd5b8480fd5b90601f8019910116810190811067ffffffffffffffff8211176104a657604052565b634e487b7160e01b600052604160045260246000fd5b81601f820112156105135780359067ffffffffffffffff82116104a657604051926104f1601f8401601f191660200185610484565b8284526020838301011161051357816000926020809301838601378301015290565b600080fd5b919082519283825260005b848110610544575050826000602080949584010152601f8019910116010190565b80602080928401015182828601015201610523565b6001600160a01b0360005416330361056d57565b7f118cdaa7000000000000000000000000000000000000000000000000000000006000523360045260246000fdfea26469706673582212208ae3aec2e9c12f999e0ad052ab2c9b867f60a71b94382386d2211fba0b0ac2cd64736f6c634300081c0033",
  "linkReferences": {},
  "deployedLinkReferences": {}
}