{
  "_format": "hh-sol-artifact-1",
  "contractName": "MoveCall",
  "sourceName": "contracts/MoveCall.sol",
  "abi": [
    {
      "inputs": [],
      "stateMutability": "nonpayable",
      "type": "constructor"
    },
    {
      "inputs": [
        {
          "internalType": "address",
          "name": "owner",
          "type": "address"
        }
      ],
      "name": "OwnableInvalidOwner",
      "type": "error"
    },
    {
      "inputs": [
        {
          "internalType": "address",
          "name": "account",
          "type": "address"
        }
      ],
      "name": "OwnableUnauthorizedAccount",
      "type": "error"
    },
    {
      "anonymous": false,
      "inputs": [
        {
          "indexed": true,
          "internalType": "address",
          "name": "previousOwner",
          "type": "address"
        },
        {
          "indexed": true,
          "internalType": "address",
          "name": "newOwner",
          "type": "address"
        }
      ],
      "name": "OwnershipTransferred",
      "type": "event"
    },
    {
      "inputs": [
        {
          "internalType": "bytes32",
          "name": "offChainSignatureId",
          "type": "bytes32"
        },
        {
          "internalType": "bytes32",
          "name": "sourceUid",
          "type": "bytes32"
        },
        {
          "internalType": "uint64",
          "name": "sourceChain",
          "type": "uint64"
        },
        {
          "internalType": "address",
          "name": "token",
          "type": "address"
        },
        {
          "internalType": "uint256",
          "name": "amount",
          "type": "uint256"
        },
        {
          "internalType": "uint8",
          "name": "decimals",
          "type": "uint8"
        },
        {
          "internalType": "address",
          "name": "receiver",
          "type": "address"
        }
      ],
      "name": "attestTokenClaim",
      "outputs": [],
      "stateMutability": "nonpayable",
      "type": "function"
    },
    {
      "inputs": [],
      "name": "owner",
      "outputs": [
        {
          "internalType": "address",
          "name": "",
          "type": "address"
        }
      ],
      "stateMutability": "view",
      "type": "function"
    },
    {
      "inputs": [
        {
          "internalType": "bytes32",
          "name": "offChainSignatureId",
          "type": "bytes32"
        },
        {
          "internalType": "bytes32",
          "name": "sourceUid",
          "type": "bytes32"
        },
        {
          "internalType": "uint64",
          "name": "sourceChain",
          "type": "uint64"
        },
        {
          "internalType": "bytes32",
          "name": "from",
          "type": "bytes32"
        },
        {
          "internalType": "address",
          "name": "to",
          "type": "address"
        },
        {
          "internalType": "bytes",
          "name": "payload",
          "type": "bytes"
        }
      ],
      "name": "receiveMessage",
      "outputs": [],
      "stateMutability": "nonpayable",
      "type": "function"
    },
    {
      "inputs": [],
      "name": "renounceOwnership",
      "outputs": [],
      "stateMutability": "nonpayable",
      "type": "function"
    },
    {
      "inputs": [
        {
          "internalType": "address",
          "name": "newOwner",
          "type": "address"
        }
      ],
      "name": "transferOwnership",
      "outputs": [],
      "stateMutability": "nonpayable",
      "type": "function"
    }
  ],
  "bytecode": "0x608080604052346075573315605f5760008054336001600160a01b0319821681178355916001600160a01b03909116907f8be0079c531659141344cd1fd0a4f28419497f9722a3daafe3b4186f6b6457e09080a3610515908161007b8239f35b631e4fbdf760e01b600052600060045260246000fd5b600080fdfe608080604052600436101561001357600080fd5b600090813560e01c9081634a10ce9d146102a6575080634b1e28d314610196578063715018a6146101305780638da5cb5b1461010a5763f2fde38b1461005857600080fd5b34610107576020366003190112610107576004356001600160a01b0381168091036101055761008561049d565b80156100d9576001600160a01b0382548273ffffffffffffffffffffffffffffffffffffffff198216178455167f8be0079c531659141344cd1fd0a4f28419497f9722a3daafe3b4186f6b6457e08380a380f35b6024827f1e4fbdf700000000000000000000000000000000000000000000000000000000815280600452fd5b505b80fd5b50346101075780600319360112610107576001600160a01b036020915416604051908152f35b503461010757806003193601126101075761014961049d565b806001600160a01b03815473ffffffffffffffffffffffffffffffffffffffff1981168355167f8be0079c531659141344cd1fd0a4f28419497f9722a3daafe3b4186f6b6457e08280a380f35b50346101075760e036600319011261010757806101b1610449565b606435906001600160a01b0382168092036102a25760a4359060ff82168092036102a05760c4356001600160a01b03811680910361029c576101f161049d565b6001600160a01b036001541691823b15610298578567ffffffffffffffff9360e493829660405198899788967fcd551abd000000000000000000000000000000000000000000000000000000008852600435600489015260243560248901521660448701526064860152608485015260843560a485015260c48401525af1801561028d5761027c5750f35b8161028691610465565b6101075780f35b6040513d84823e3d90fd5b8580fd5b8480fd5b505b5050fd5b9050346101055760c0366003190112610105576102c1610449565b90608435906001600160a01b0382168092036104455760a43567ffffffffffffffff811161029c573660238201121561029c57806004013567ffffffffffffffff81116104315785919061031f601f8201601f191660200185610465565b808452366024828401011161042d5780602460209301838601378301015261034561049d565b6001600160a01b036002541691823b1561029c5792849167ffffffffffffffff946040519586937f4a10ce9d000000000000000000000000000000000000000000000000000000008552600435600486015260243560248601521660448401526064356064840152608483015260c060a48301528051908160c4840152835b82811061041257505092818360e482878383819a84010152601f801991011681010301925af18015610405576103f75780f35b61040091610465565b388180f35b50604051903d90823e3d90fd5b602081830181015160e48984010152889550879450016103c4565b8280fd5b602486634e487b7160e01b81526041600452fd5b8380fd5b6044359067ffffffffffffffff8216820361046057565b600080fd5b90601f8019910116810190811067ffffffffffffffff82111761048757604052565b634e487b7160e01b600052604160045260246000fd5b6001600160a01b036000541633036104b157565b7f118cdaa7000000000000000000000000000000000000000000000000000000006000523360045260246000fdfea264697066735822122057d17d36053bbb4607a85a72b30cd795c7c21c3b76d2614ec1567c07d99e970964736f6c634300081c0033",
  "linkReferences": {},
  "deployedLinkReferences": {}
}