{
  "_format": "hh-sol-artifact-1",
  "contractName": "MoveCall",
  "sourceName": "contracts/MoveCall.sol",
  "abi": [
    {
      "inputs": [],
      "stateMutability": "nonpayable",
      "type": "constructor"
    },
    {
      "inputs": [
        {
          "internalType": "address",
          "name": "owner",
          "type": "address"
        }
      ],
      "name": "OwnableInvalidOwner",
      "type": "error"
    },
    {
      "inputs": [
        {
          "internalType": "address",
          "name": "account",
          "type": "address"
        }
      ],
      "name": "OwnableUnauthorizedAccount",
      "type": "error"
    },
    {
      "anonymous": false,
      "inputs": [
        {
          "indexed": true,
          "internalType": "address",
          "name": "previousOwner",
          "type": "address"
        },
        {
          "indexed": true,
          "internalType": "address",
          "name": "newOwner",
          "type": "address"
        }
      ],
      "name": "OwnershipTransferred",
      "type": "event"
    },
    {
      "inputs": [
        {
          "internalType": "bytes32",
          "name": "offChainSignatureId",
          "type": "bytes32"
        },
        {
          "internalType": "bytes32",
          "name": "sourceUid",
          "type": "bytes32"
        },
        {
          "internalType": "uint64",
          "name": "sourceChain",
          "type": "uint64"
        },
        {
          "internalType": "address",
          "name": "token",
          "type": "address"
        },
        {
          "internalType": "uint256",
          "name": "amount",
          "type": "uint256"
        },
        {
          "internalType": "uint8",
          "name": "decimals",
          "type": "uint8"
        },
        {
          "internalType": "address",
          "name": "receiver",
          "type": "address"
        }
      ],
      "name": "attestTokenClaim",
      "outputs": [],
      "stateMutability": "nonpayable",
      "type": "function"
    },
    {
      "inputs": [],
      "name": "owner",
      "outputs": [
        {
          "internalType": "address",
          "name": "",
          "type": "address"
        }
      ],
      "stateMutability": "view",
      "type": "function"
    },
    {
      "inputs": [
        {
          "internalType": "bytes32",
          "name": "offChainSignatureId",
          "type": "bytes32"
        },
        {
          "internalType": "bytes32",
          "name": "sourceUid",
          "type": "bytes32"
        },
        {
          "internalType": "uint64",
          "name": "sourceChain",
          "type": "uint64"
        },
        {
          "internalType": "bytes32",
          "name": "from",
          "type": "bytes32"
        },
        {
          "internalType": "address",
          "name": "to",
          "type": "address"
        },
        {
          "internalType": "bytes",
          "name": "payload",
          "type": "bytes"
        }
      ],
      "name": "receiveMessage",
      "outputs": [],
      "stateMutability": "nonpayable",
      "type": "function"
    },
    {
      "inputs": [],
      "name": "renounceOwnership",
      "outputs": [],
      "stateMutability": "nonpayable",
      "type": "function"
    },
    {
      "inputs": [
        {
          "internalType": "contract ITokenBridge",
          "name": "tokenBridge",
          "type": "address"
        },
        {
          "internalType": "contract IMessageBridge",
          "name": "messageBridge",
          "type": "address"
        }
      ],
      "name": "setBridges",
      "outputs": [],
      "stateMutability": "nonpayable",
      "type": "function"
    },
    {
      "inputs": [
        {
          "internalType": "address",
          "name": "newOwner",
          "type": "address"
        }
      ],
      "name": "transferOwnership",
      "outputs": [],
      "stateMutability": "nonpayable",
      "type": "function"
    }
  ],
  "bytecode": "0x608080604052346075573315605f5760008054336001600160a01b0319821681178355916001600160a01b03909116907f8be0079c531659141344cd1fd0a4f28419497f9722a3daafe3b4186f6b6457e09080a361059f908161007b8239f35b631e4fbdf760e01b600052600060045260246000fd5b600080fdfe6080604052600436101561001257600080fd5b6000803560e01c806318780820146104515780634a10ce9d146102ad5780634b1e28d31461019d578063715018a6146101375780638da5cb5b146101115763f2fde38b1461005f57600080fd5b3461010e57602036600319011261010e576004356001600160a01b03811680910361010c5761008c610527565b80156100e0576001600160a01b0382548273ffffffffffffffffffffffffffffffffffffffff198216178455167f8be0079c531659141344cd1fd0a4f28419497f9722a3daafe3b4186f6b6457e08380a380f35b6024827f1e4fbdf700000000000000000000000000000000000000000000000000000000815280600452fd5b505b80fd5b503461010e578060031936011261010e576001600160a01b036020915416604051908152f35b503461010e578060031936011261010e57610150610527565b806001600160a01b03815473ffffffffffffffffffffffffffffffffffffffff1981168355167f8be0079c531659141344cd1fd0a4f28419497f9722a3daafe3b4186f6b6457e08280a380f35b503461010e5760e036600319011261010e57806101b86104d3565b606435906001600160a01b0382168092036102a95760a4359060ff82168092036102a75760c4356001600160a01b0381168091036102a3576101f8610527565b6001600160a01b036001541691823b1561029f578567ffffffffffffffff9360e493829660405198899788967fcd551abd000000000000000000000000000000000000000000000000000000008852600435600489015260243560248901521660448701526064860152608485015260843560a485015260c48401525af18015610294576102835750f35b8161028d916104ef565b61010e5780f35b6040513d84823e3d90fd5b8580fd5b8480fd5b505b5050fd5b503461010e5760c036600319011261010e576102c76104d3565b6084356001600160a01b0381168091036104355760a43567ffffffffffffffff811161044d573660238201121561044d5780600401359067ffffffffffffffff8211610439578490604051926103276020601f19601f84011601856104ef565b80845236602482840101116104355780602460209301838601378301015261034d610527565b6001600160a01b036002541691823b156102a35792849167ffffffffffffffff946040519586937f4a10ce9d000000000000000000000000000000000000000000000000000000008552600435600486015260243560248601521660448401526064356064840152608483015260c060a48301528051908160c4840152835b82811061041a57505092818360e482878383819a84010152601f801991011681010301925af1801561040d576103ff5780f35b610408916104ef565b388180f35b50604051903d90823e3d90fd5b602081830181015160e48984010152889550879450016103cc565b8280fd5b602485634e487b7160e01b81526041600452fd5b8380fd5b503461010e57604036600319011261010e576004356001600160a01b03811680910361010c57602435906001600160a01b03821680920361043557610494610527565b73ffffffffffffffffffffffffffffffffffffffff19600154161760015573ffffffffffffffffffffffffffffffffffffffff19600254161760025580f35b6044359067ffffffffffffffff821682036104ea57565b600080fd5b90601f8019910116810190811067ffffffffffffffff82111761051157604052565b634e487b7160e01b600052604160045260246000fd5b6001600160a01b0360005416330361053b57565b7f118cdaa7000000000000000000000000000000000000000000000000000000006000523360045260246000fdfea2646970667358221220bdb3f6cf706018900216d5240cb27bef97e1966b6f2d399702f5f28e1c1a4f4f64736f6c634300081c0033",
  "linkReferences": {},
  "deployedLinkReferences": {}
}