{
  "_format": "hh-sol-artifact-1",
  "contractName": "TokenBridge",
  "sourceName": "contracts/TokenBridge.sol",
  "abi": [
    {
      "inputs": [
        {
          "internalType": "address",
          "name": "moveCall_",
          "type": "address"
        }
      ],
      "stateMutability": "nonpayable",
      "type": "constructor"
    },
    {
      "inputs": [
        {
          "internalType": "address",
          "name": "owner",
          "type": "address"
        }
      ],
      "name": "OwnableInvalidOwner",
      "type": "error"
    },
    {
      "inputs": [
        {
          "internalType": "address",
          "name": "account",
          "type": "address"
        }
      ],
      "name": "OwnableUnauthorizedAccount",
      "type": "error"
    },
    {
      "anonymous": false,
      "inputs": [
        {
          "indexed": true,
          "internalType": "address",
          "name": "previousOwner",
          "type": "address"
        },
        {
          "indexed": true,
          "internalType": "address",
          "name": "newOwner",
          "type": "address"
        }
      ],
      "name": "OwnershipTransferred",
      "type": "event"
    },
    {
      "anonymous": false,
      "inputs": [
        {
          "indexed": false,
          "internalType": "bytes32",
          "name": "offChainSignatureId",
          "type": "bytes32"
        },
        {
          "indexed": false,
          "internalType": "bytes32",
          "name": "sourceUid",
          "type": "bytes32"
        },
        {
          "indexed": false,
          "internalType": "uint64",
          "name": "sourceChain",
          "type": "uint64"
        },
        {
          "indexed": false,
          "internalType": "address",
          "name": "token",
          "type": "address"
        },
        {
          "indexed": false,
          "internalType": "uint8",
          "name": "decimals",
          "type": "uint8"
        },
        {
          "indexed": false,
          "internalType": "uint256",
          "name": "amount",
          "type": "uint256"
        },
        {
          "indexed": false,
          "internalType": "address",
          "name": "receiver",
          "type": "address"
        }
      ],
      "name": "TokenClaimed",
      "type": "event"
    },
    {
      "anonymous": false,
      "inputs": [
        {
          "indexed": true,
          "internalType": "bytes32",
          "name": "uid",
          "type": "bytes32"
        },
        {
          "indexed": false,
          "internalType": "address",
          "name": "token",
          "type": "address"
        },
        {
          "indexed": false,
          "internalType": "uint256",
          "name": "decimals",
          "type": "uint256"
        },
        {
          "indexed": false,
          "internalType": "uint256",
          "name": "amount",
          "type": "uint256"
        },
        {
          "indexed": false,
          "internalType": "uint64",
          "name": "toChain",
          "type": "uint64"
        },
        {
          "indexed": false,
          "internalType": "bytes32",
          "name": "receiver",
          "type": "bytes32"
        }
      ],
      "name": "TokenTransfer",
      "type": "event"
    },
    {
      "inputs": [
        {
          "internalType": "bytes32",
          "name": "offChainSignatureId",
          "type": "bytes32"
        },
        {
          "internalType": "bytes32",
          "name": "sourceUid",
          "type": "bytes32"
        },
        {
          "internalType": "uint64",
          "name": "sourceChain",
          "type": "uint64"
        },
        {
          "internalType": "address",
          "name": "token",
          "type": "address"
        },
        {
          "internalType": "uint8",
          "name": "decimals",
          "type": "uint8"
        },
        {
          "internalType": "uint256",
          "name": "amount",
          "type": "uint256"
        },
        {
          "internalType": "address",
          "name": "receiver",
          "type": "address"
        }
      ],
      "name": "attestTokenClaim",
      "outputs": [],
      "stateMutability": "nonpayable",
      "type": "function"
    },
    {
      "inputs": [
        {
          "internalType": "bytes32",
          "name": "sourceUid",
          "type": "bytes32"
        },
        {
          "internalType": "uint64",
          "name": "sourceChain",
          "type": "uint64"
        },
        {
          "internalType": "uint256",
          "name": "amount",
          "type": "uint256"
        },
        {
          "internalType": "uint8",
          "name": "decimals",
          "type": "uint8"
        },
        {
          "internalType": "address",
          "name": "receiver",
          "type": "address"
        }
      ],
      "name": "getClaimRoot",
      "outputs": [
        {
          "internalType": "bytes32",
          "name": "",
          "type": "bytes32"
        }
      ],
      "stateMutability": "pure",
      "type": "function"
    },
    {
      "inputs": [],
      "name": "getNonce",
      "outputs": [
        {
          "internalType": "uint256",
          "name": "",
          "type": "uint256"
        }
      ],
      "stateMutability": "view",
      "type": "function"
    },
    {
      "inputs": [],
      "name": "owner",
      "outputs": [
        {
          "internalType": "address",
          "name": "",
          "type": "address"
        }
      ],
      "stateMutability": "view",
      "type": "function"
    },
    {
      "inputs": [],
      "name": "renounceOwnership",
      "outputs": [],
      "stateMutability": "nonpayable",
      "type": "function"
    },
    {
      "inputs": [
        {
          "internalType": "address",
          "name": "token",
          "type": "address"
        },
        {
          "internalType": "uint256",
          "name": "amount",
          "type": "uint256"
        },
        {
          "internalType": "uint64",
          "name": "toChain",
          "type": "uint64"
        },
        {
          "internalType": "bytes32",
          "name": "receiver",
          "type": "bytes32"
        }
      ],
      "name": "tokenTransfer",
      "outputs": [
        {
          "internalType": "bytes32",
          "name": "uid",
          "type": "bytes32"
        }
      ],
      "stateMutability": "nonpayable",
      "type": "function"
    },
    {
      "inputs": [
        {
          "internalType": "uint64",
          "name": "toChain",
          "type": "uint64"
        },
        {
          "internalType": "bytes32",
          "name": "receiver",
          "type": "bytes32"
        }
      ],
      "name": "tokenTransferETH",
      "outputs": [
        {
          "internalType": "bytes32",
          "name": "uid",
          "type": "bytes32"
        }
      ],
      "stateMutability": "payable",
      "type": "function"
    },
    {
      "inputs": [
        {
          "internalType": "address",
          "name": "newOwner",
          "type": "address"
        }
      ],
      "name": "transferOwnership",
      "outputs": [],
      "stateMutability": "nonpayable",
      "type": "function"
    },
    {
      "stateMutability": "payable",
      "type": "receive"
    }
  ],
  "bytecode": "0x60803460d157601f610a1c38819003918201601f19168301916001600160401b0383118484101760d65780849260209460405283398101031260d157516001600160a01b0381169081900360d157331560bb5760008054336001600160a01b0319821681178355604051939290916001600160a01b0316907f8be0079c531659141344cd1fd0a4f28419497f9722a3daafe3b4186f6b6457e09080a3600280546001600160a01b03191691909117905561092f90816100ed8239f35b631e4fbdf760e01b600052600060045260246000fd5b600080fd5b634e487b7160e01b600052604160045260246000fdfe6080604052600436101561001b575b361561001957600080fd5b005b60003560e01c8063715018a61461076c5780637fca0a08146105e75780638da5cb5b146105c05780639baddcf11461055f578063cd551abd14610217578063d087d288146101f9578063d53980f01461012c5763f2fde38b0361000e5734610127576020366003190112610127576001600160a01b036100996107d2565b6100a16108b7565b1680156100f8576001600160a01b036000548273ffffffffffffffffffffffffffffffffffffffff19821617600055167f8be0079c531659141344cd1fd0a4f28419497f9722a3daafe3b4186f6b6457e0600080a3005b7f1e4fbdf700000000000000000000000000000000000000000000000000000000600052600060045260246000fd5b600080fd5b60403660031901126101275760043567ffffffffffffffff81168091036101275760243590600154917fb0476d9c1d4abf2f87fd29d4eba882a93fbaa26856b5d71019e312dd83aa883560a0604051602081019086825260006040820152346060820152846080820152608081526101a483826107ff565b51902093849360405191600083526012602084015234604084015260608301526080820152a2600182018092116101e357602091600155604051908152f35b634e487b7160e01b600052601160045260246000fd5b34610127576000366003190112610127576020600154604051908152f35b346101275760e0366003190112610127576024356102336107e8565b606435906001600160a01b038216809203610127576084359260ff8416938481036101275760a43560c435956001600160a01b03871692838803610127576001600160a01b036002541633036101275786159788156105005761029c906012925b858989610868565b9788600052600360205260ff604060002054166104a25760ff604051927f8085a82c00000000000000000000000000000000000000000000000000000000845285600485015284602485015216604483015260208260648173__$5db4157104702c58833070ef275fff1fae$__5af49182156103a85760009261046b575b50156103bd57600080808093878282156103b4575bf1156103a8577f37599fda9fb8025b1643bf229602c851306b15ce91b5066fea95524e2cdbf2059567ffffffffffffffff60e0965b60405196600435885260208801521660408601526060850152608084015260a083015260c0820152a16000908152600360205260409020805460ff19166001179055005b6040513d6000823e3d90fd5b506108fc61032f565b9495604051957fa9059cbb00000000000000000000000000000000000000000000000000000000875284600488015260248701526020866044816000855af180156103a8577f37599fda9fb8025b1643bf229602c851306b15ce91b5066fea95524e2cdbf2059760e09767ffffffffffffffff9261043c575b50610364565b61045d9060203d602011610464575b61045581836107ff565b810190610850565b508a610436565b503d61044b565b90916020823d60201161049a575b81610486602093836107ff565b81010312610497575051908961031a565b80fd5b3d9150610479565b60646040517f08c379a000000000000000000000000000000000000000000000000000000000815260206004820152600f60248201527f414c52454144595f434c41494d454400000000000000000000000000000000006044820152fd5b6040519063313ce56760e01b82526020826004818c5afa80156103a85761029c92600091610530575b5092610294565b610552915060203d602011610558575b61054a81836107ff565b810190610837565b8b610529565b503d610540565b346101275760a03660031901126101275760243567ffffffffffffffff81168103610127576064359060ff82168203610127576084356001600160a01b0381168103610127576020926105b89260443590600435610868565b604051908152f35b346101275760003660031901126101275760206001600160a01b0360005416604051908152f35b34610127576080366003190112610127576106006107d2565b6024359061060c6107e8565b6001600160a01b036064359216906040519163313ce56760e01b8352602083600481845afa9283156103a85760009361074b575b50604051907f23b872dd0000000000000000000000000000000000000000000000000000000082523360048301523060248301528560448301526020826064816000855af19485156103a85767ffffffffffffffff7fb0476d9c1d4abf2f87fd29d4eba882a93fbaa26856b5d71019e312dd83aa88359460a09460ff9861072e575b506001549860405160208101908b8252866040820152826060820152856080820152608081526106f288826107ff565b51902098899860405196875216602086015260408501521660608301526080820152a2600182018092116101e357602091600155604051908152f35b6107469060203d6020116104645761045581836107ff565b6106c2565b61076591935060203d6020116105585761054a81836107ff565b9185610640565b34610127576000366003190112610127576107856108b7565b60006001600160a01b03815473ffffffffffffffffffffffffffffffffffffffff1981168355167f8be0079c531659141344cd1fd0a4f28419497f9722a3daafe3b4186f6b6457e08280a3005b600435906001600160a01b038216820361012757565b6044359067ffffffffffffffff8216820361012757565b90601f8019910116810190811067ffffffffffffffff82111761082157604052565b634e487b7160e01b600052604160045260246000fd5b90816020910312610127575160ff811681036101275790565b90816020910312610127575180151581036101275790565b93909260ff906001600160a01b039367ffffffffffffffff604051966020880198895216604087015260608601521660808401521660a082015260a081526108b160c0826107ff565b51902090565b6001600160a01b036000541633036108cb57565b7f118cdaa7000000000000000000000000000000000000000000000000000000006000523360045260246000fdfea2646970667358221220bbd350a570ea2ecf6b824fd3c9b2bc320c2b2da733f3f611e4f122e0047ba4f464736f6c634300081c0033",
  "linkReferences": {
    "contracts/libs/MathLib.sol": {
      "MathLib": [
        {
          "length": 20,
          "start": 995
        }
      ]
    }
  },
  "deployedLinkReferences": {
    "contracts/libs/MathLib.sol": {
      "MathLib": [
        {
          "length": 20,
          "start": 758
        }
      ]
    }
  }
}