{
  "_format": "hh-sol-artifact-1",
  "contractName": "MathLib",
  "sourceName": "contracts/libs/MathLib.sol",
  "abi": [
    {
      "inputs": [
        {
          "internalType": "uint256",
          "name": "value",
          "type": "uint256"
        },
        {
          "internalType": "uint8",
          "name": "decimals",
          "type": "uint8"
        },
        {
          "internalType": "uint8",
          "name": "decimalsTarget",
          "type": "uint8"
        }
      ],
      "name": "scale",
      "outputs": [
        {
          "internalType": "uint256",
          "name": "",
          "type": "uint256"
        }
      ],
      "stateMutability": "pure",
      "type": "function"
    }
  ],
  "bytecode": "0x60808060405234601957610150908161001f823930815050f35b600080fdfe6080604052600436101561001257600080fd5b60003560e01c638085a82c1461002757600080fd5b60603660031901126100655760243560ff81168103610065576044359060ff821682036100655760209161005d91600435610094565b604051908152f35b600080fd5b9060ff8091169116039060ff821161007e57565b634e487b7160e01b600052601160045260246000fd5b919060ff821660ff82168181146000146100af575050505090565b11156100e8576100c7916100c29161006a565b610109565b9081156100d2570490565b634e487b7160e01b600052601260045260246000fd5b6100c2906100f59261006a565b9081810291818304149015171561007e5790565b60ff16604d811161007e57600a0a9056fea2646970667358221220db1a2b6d81372d5b02fd61bbcf9dc72f48c1cffd2dc19183f510c49765cf515264736f6c634300081c0033",
  "linkReferences": {},
  "deployedLinkReferences": {}
}