{
  "_format": "hh-sol-artifact-1",
  "contractName": "TokenBridge",
  "sourceName": "contracts/TokenBridge.sol",
  "abi": [
    {
      "inputs": [
        {
          "internalType": "address",
          "name": "moveCall_",
          "type": "address"
        }
      ],
      "stateMutability": "nonpayable",
      "type": "constructor"
    },
    {
      "inputs": [
        {
          "internalType": "address",
          "name": "owner",
          "type": "address"
        }
      ],
      "name": "OwnableInvalidOwner",
      "type": "error"
    },
    {
      "inputs": [
        {
          "internalType": "address",
          "name": "account",
          "type": "address"
        }
      ],
      "name": "OwnableUnauthorizedAccount",
      "type": "error"
    },
    {
      "anonymous": false,
      "inputs": [
        {
          "indexed": true,
          "internalType": "address",
          "name": "previousOwner",
          "type": "address"
        },
        {
          "indexed": true,
          "internalType": "address",
          "name": "newOwner",
          "type": "address"
        }
      ],
      "name": "OwnershipTransferred",
      "type": "event"
    },
    {
      "anonymous": false,
      "inputs": [
        {
          "indexed": false,
          "internalType": "bytes32",
          "name": "offChainSignatureId",
          "type": "bytes32"
        },
        {
          "indexed": false,
          "internalType": "bytes32",
          "name": "sourceUid",
          "type": "bytes32"
        },
        {
          "indexed": false,
          "internalType": "uint64",
          "name": "sourceChain",
          "type": "uint64"
        },
        {
          "indexed": false,
          "internalType": "address",
          "name": "token",
          "type": "address"
        },
        {
          "indexed": false,
          "internalType": "uint8",
          "name": "decimals",
          "type": "uint8"
        },
        {
          "indexed": false,
          "internalType": "uint256",
          "name": "amount",
          "type": "uint256"
        },
        {
          "indexed": false,
          "internalType": "address",
          "name": "receiver",
          "type": "address"
        }
      ],
      "name": "TokenClaimed",
      "type": "event"
    },
    {
      "anonymous": false,
      "inputs": [
        {
          "indexed": true,
          "internalType": "bytes32",
          "name": "uid",
          "type": "bytes32"
        },
        {
          "indexed": false,
          "internalType": "address",
          "name": "token",
          "type": "address"
        },
        {
          "indexed": false,
          "internalType": "uint256",
          "name": "decimals",
          "type": "uint256"
        },
        {
          "indexed": false,
          "internalType": "uint256",
          "name": "amount",
          "type": "uint256"
        },
        {
          "indexed": false,
          "internalType": "uint64",
          "name": "toChain",
          "type": "uint64"
        },
        {
          "indexed": false,
          "internalType": "bytes32",
          "name": "receiver",
          "type": "bytes32"
        }
      ],
      "name": "TokenTransfer",
      "type": "event"
    },
    {
      "inputs": [
        {
          "internalType": "bytes32",
          "name": "offChainSignatureId",
          "type": "bytes32"
        },
        {
          "internalType": "bytes32",
          "name": "sourceUid",
          "type": "bytes32"
        },
        {
          "internalType": "uint64",
          "name": "sourceChain",
          "type": "uint64"
        },
        {
          "internalType": "address",
          "name": "token",
          "type": "address"
        },
        {
          "internalType": "uint8",
          "name": "decimals",
          "type": "uint8"
        },
        {
          "internalType": "uint256",
          "name": "amount",
          "type": "uint256"
        },
        {
          "internalType": "address",
          "name": "receiver",
          "type": "address"
        }
      ],
      "name": "attestTokenClaim",
      "outputs": [],
      "stateMutability": "nonpayable",
      "type": "function"
    },
    {
      "inputs": [
        {
          "internalType": "bytes32",
          "name": "sourceUid",
          "type": "bytes32"
        },
        {
          "internalType": "uint64",
          "name": "sourceChain",
          "type": "uint64"
        },
        {
          "internalType": "uint256",
          "name": "amount",
          "type": "uint256"
        },
        {
          "internalType": "uint8",
          "name": "decimals",
          "type": "uint8"
        },
        {
          "internalType": "address",
          "name": "receiver",
          "type": "address"
        }
      ],
      "name": "getClaimRoot",
      "outputs": [
        {
          "internalType": "bytes32",
          "name": "",
          "type": "bytes32"
        }
      ],
      "stateMutability": "pure",
      "type": "function"
    },
    {
      "inputs": [],
      "name": "getNonce",
      "outputs": [
        {
          "internalType": "uint256",
          "name": "",
          "type": "uint256"
        }
      ],
      "stateMutability": "view",
      "type": "function"
    },
    {
      "inputs": [],
      "name": "owner",
      "outputs": [
        {
          "internalType": "address",
          "name": "",
          "type": "address"
        }
      ],
      "stateMutability": "view",
      "type": "function"
    },
    {
      "inputs": [],
      "name": "renounceOwnership",
      "outputs": [],
      "stateMutability": "nonpayable",
      "type": "function"
    },
    {
      "inputs": [
        {
          "internalType": "address",
          "name": "token",
          "type": "address"
        },
        {
          "internalType": "uint256",
          "name": "amount",
          "type": "uint256"
        },
        {
          "internalType": "uint64",
          "name": "toChain",
          "type": "uint64"
        },
        {
          "internalType": "bytes32",
          "name": "receiver",
          "type": "bytes32"
        }
      ],
      "name": "tokenTranfer",
      "outputs": [
        {
          "internalType": "bytes32",
          "name": "uid",
          "type": "bytes32"
        }
      ],
      "stateMutability": "nonpayable",
      "type": "function"
    },
    {
      "inputs": [
        {
          "internalType": "uint64",
          "name": "toChain",
          "type": "uint64"
        },
        {
          "internalType": "bytes32",
          "name": "receiver",
          "type": "bytes32"
        }
      ],
      "name": "tokenTranferETH",
      "outputs": [
        {
          "internalType": "bytes32",
          "name": "uid",
          "type": "bytes32"
        }
      ],
      "stateMutability": "payable",
      "type": "function"
    },
    {
      "inputs": [
        {
          "internalType": "address",
          "name": "newOwner",
          "type": "address"
        }
      ],
      "name": "transferOwnership",
      "outputs": [],
      "stateMutability": "nonpayable",
      "type": "function"
    },
    {
      "stateMutability": "payable",
      "type": "receive"
    }
  ],
  "bytecode": "0x60803460d157601f610a1c38819003918201601f19168301916001600160401b0383118484101760d65780849260209460405283398101031260d157516001600160a01b0381169081900360d157331560bb5760008054336001600160a01b0319821681178355604051939290916001600160a01b0316907f8be0079c531659141344cd1fd0a4f28419497f9722a3daafe3b4186f6b6457e09080a3600280546001600160a01b03191691909117905561092f90816100ed8239f35b631e4fbdf760e01b600052600060045260246000fd5b600080fd5b634e487b7160e01b600052604160045260246000fdfe6080604052600436101561001b575b361561001957600080fd5b005b60003560e01c806312755a281461071b578063715018a6146106b55780638da5cb5b1461068e5780639baddcf11461062d578063cd551abd14610311578063d087d288146102f3578063d71dcaed1461012c5763f2fde38b0361000e5734610127576020366003190112610127576001600160a01b036100996107e9565b6100a16108b7565b1680156100f8576001600160a01b036000548273ffffffffffffffffffffffffffffffffffffffff19821617600055167f8be0079c531659141344cd1fd0a4f28419497f9722a3daafe3b4186f6b6457e0600080a3005b7f1e4fbdf700000000000000000000000000000000000000000000000000000000600052600060045260246000fd5b600080fd5b34610127576080366003190112610127576101456107e9565b602435906101516107d2565b6001600160a01b036064359216906040519163313ce56760e01b8352602083600481845afa9283156102b6576000936102c2575b50604051907f23b872dd0000000000000000000000000000000000000000000000000000000082523360048301523060248301528560448301526020826064816000855af19485156102b65767ffffffffffffffff7fb0476d9c1d4abf2f87fd29d4eba882a93fbaa26856b5d71019e312dd83aa88359460a09460ff98610289575b506001549860405160208101908b82528660408201528260608201528560808201526080815261023788826107ff565b51902098899860405196875216602086015260408501521660608301526080820152a26001820180921161027357602091600155604051908152f35b634e487b7160e01b600052601160045260246000fd5b6102aa9060203d6020116102af575b6102a281836107ff565b81019061089f565b610207565b503d610298565b6040513d6000823e3d90fd5b6102e591935060203d6020116102ec575b6102dd81836107ff565b810190610886565b9185610185565b503d6102d3565b34610127576000366003190112610127576020600154604051908152f35b346101275760e03660031901126101275760243561032d6107d2565b606435906001600160a01b038216809203610127576084359260ff8416938481036101275760a43560c435956001600160a01b03871692838803610127576001600160a01b036002541633036101275786159788156105de57610396906012925b858989610837565b9788600052600360205260ff604060002054166105805760ff604051927f8085a82c00000000000000000000000000000000000000000000000000000000845285600485015284602485015216604483015260208260648173__$5db4157104702c58833070ef275fff1fae$__5af49182156102b657600092610549575b50156104ab57600080808093878282156104a2575bf1156102b6577f37599fda9fb8025b1643bf229602c851306b15ce91b5066fea95524e2cdbf2059567ffffffffffffffff60e0965b60405196600435885260208801521660408601526060850152608084015260a083015260c0820152a16000908152600360205260409020805460ff19166001179055005b506108fc610429565b9495604051957fa9059cbb00000000000000000000000000000000000000000000000000000000875284600488015260248701526020866044816000855af180156102b6577f37599fda9fb8025b1643bf229602c851306b15ce91b5066fea95524e2cdbf2059760e09767ffffffffffffffff9261052a575b5061045e565b6105429060203d6020116102af576102a281836107ff565b508a610524565b90916020823d602011610578575b81610564602093836107ff565b810103126105755750519089610414565b80fd5b3d9150610557565b60646040517f08c379a000000000000000000000000000000000000000000000000000000000815260206004820152600f60248201527f414c52454144595f434c41494d454400000000000000000000000000000000006044820152fd5b6040519063313ce56760e01b82526020826004818c5afa80156102b6576103969260009161060e575b509261038e565b610627915060203d6020116102ec576102dd81836107ff565b8b610607565b346101275760a03660031901126101275760243567ffffffffffffffff81168103610127576064359060ff82168203610127576084356001600160a01b0381168103610127576020926106869260443590600435610837565b604051908152f35b346101275760003660031901126101275760206001600160a01b0360005416604051908152f35b34610127576000366003190112610127576106ce6108b7565b60006001600160a01b03815473ffffffffffffffffffffffffffffffffffffffff1981168355167f8be0079c531659141344cd1fd0a4f28419497f9722a3daafe3b4186f6b6457e08280a3005b60403660031901126101275760043567ffffffffffffffff81168091036101275760243590600154917fb0476d9c1d4abf2f87fd29d4eba882a93fbaa26856b5d71019e312dd83aa883560a06040516020810190868252600060408201523460608201528460808201526080815261079383826107ff565b51902093849360405191600083526012602084015234604084015260608301526080820152a26001820180921161027357602091600155604051908152f35b6044359067ffffffffffffffff8216820361012757565b600435906001600160a01b038216820361012757565b90601f8019910116810190811067ffffffffffffffff82111761082157604052565b634e487b7160e01b600052604160045260246000fd5b93909260ff906001600160a01b039367ffffffffffffffff604051966020880198895216604087015260608601521660808401521660a082015260a0815261088060c0826107ff565b51902090565b90816020910312610127575160ff811681036101275790565b90816020910312610127575180151581036101275790565b6001600160a01b036000541633036108cb57565b7f118cdaa7000000000000000000000000000000000000000000000000000000006000523360045260246000fdfea2646970667358221220421a0213a47ce5a0a68f33bf1ff8cab81a18477eaf513420cebbf9050668f4f764736f6c634300081c0033",
  "linkReferences": {
    "contracts/libs/MathLib.sol": {
      "MathLib": [
        {
          "length": 20,
          "start": 1245
        }
      ]
    }
  },
  "deployedLinkReferences": {
    "contracts/libs/MathLib.sol": {
      "MathLib": [
        {
          "length": 20,
          "start": 1008
        }
      ]
    }
  }
}