{
  "contracts/libs/MathLib.sol": {
    "MathLib": {
      "abi": [
        {
          "inputs": [
            {
              "internalType": "uint256",
              "name": "value",
              "type": "uint256"
            },
            {
              "internalType": "uint8",
              "name": "decimals",
              "type": "uint8"
            },
            {
              "internalType": "uint8",
              "name": "decimalsTarget",
              "type": "uint8"
            }
          ],
          "name": "scale",
          "outputs": [
            {
              "internalType": "uint256",
              "name": "",
              "type": "uint256"
            }
          ],
          "stateMutability": "pure",
          "type": "function"
        }
      ],
      "evm": {
        "bytecode": {
          "linkReferences": {},
          "object": "60808060405234601957610150908161001f823930815050f35b600080fdfe6080604052600436101561001257600080fd5b60003560e01c638085a82c1461002757600080fd5b60603660031901126100655760243560ff81168103610065576044359060ff821682036100655760209161005d91600435610094565b604051908152f35b600080fd5b9060ff8091169116039060ff821161007e57565b634e487b7160e01b600052601160045260246000fd5b919060ff821660ff82168181146000146100af575050505090565b11156100e8576100c7916100c29161006a565b610109565b9081156100d2570490565b634e487b7160e01b600052601260045260246000fd5b6100c2906100f59261006a565b9081810291818304149015171561007e5790565b60ff16604d811161007e57600a0a9056fea2646970667358221220db1a2b6d81372d5b02fd61bbcf9dc72f48c1cffd2dc19183f510c49765cf515264736f6c634300081c0033",
          "opcodes": "PUSH1 0x80 DUP1 PUSH1 0x40 MSTORE CALLVALUE PUSH1 0x19 JUMPI PUSH2 0x150 SWAP1 DUP2 PUSH2 0x1F DUP3 CODECOPY ADDRESS DUP2 POP POP RETURN JUMPDEST PUSH1 0x0 DUP1 REVERT INVALID PUSH1 0x80 PUSH1 0x40 MSTORE PUSH1 0x4 CALLDATASIZE LT ISZERO PUSH2 0x12 JUMPI PUSH1 0x0 DUP1 REVERT JUMPDEST PUSH1 0x0 CALLDATALOAD PUSH1 0xE0 SHR PUSH4 0x8085A82C EQ PUSH2 0x27 JUMPI PUSH1 0x0 DUP1 REVERT JUMPDEST PUSH1 0x60 CALLDATASIZE PUSH1 0x3 NOT ADD SLT PUSH2 0x65 JUMPI PUSH1 0x24 CALLDATALOAD PUSH1 0xFF DUP2 AND DUP2 SUB PUSH2 0x65 JUMPI PUSH1 0x44 CALLDATALOAD SWAP1 PUSH1 0xFF DUP3 AND DUP3 SUB PUSH2 0x65 JUMPI PUSH1 0x20 SWAP2 PUSH2 0x5D SWAP2 PUSH1 0x4 CALLDATALOAD PUSH2 0x94 JUMP JUMPDEST PUSH1 0x40 MLOAD SWAP1 DUP2 MSTORE RETURN JUMPDEST PUSH1 0x0 DUP1 REVERT JUMPDEST SWAP1 PUSH1 0xFF DUP1 SWAP2 AND SWAP2 AND SUB SWAP1 PUSH1 0xFF DUP3 GT PUSH2 0x7E JUMPI JUMP JUMPDEST PUSH4 0x4E487B71 PUSH1 0xE0 SHL PUSH1 0x0 MSTORE PUSH1 0x11 PUSH1 0x4 MSTORE PUSH1 0x24 PUSH1 0x0 REVERT JUMPDEST SWAP2 SWAP1 PUSH1 0xFF DUP3 AND PUSH1 0xFF DUP3 AND DUP2 DUP2 EQ PUSH1 0x0 EQ PUSH2 0xAF JUMPI POP POP POP POP SWAP1 JUMP JUMPDEST GT ISZERO PUSH2 0xE8 JUMPI PUSH2 0xC7 SWAP2 PUSH2 0xC2 SWAP2 PUSH2 0x6A JUMP JUMPDEST PUSH2 0x109 JUMP JUMPDEST SWAP1 DUP2 ISZERO PUSH2 0xD2 JUMPI DIV SWAP1 JUMP JUMPDEST PUSH4 0x4E487B71 PUSH1 0xE0 SHL PUSH1 0x0 MSTORE PUSH1 0x12 PUSH1 0x4 MSTORE PUSH1 0x24 PUSH1 0x0 REVERT JUMPDEST PUSH2 0xC2 SWAP1 PUSH2 0xF5 SWAP3 PUSH2 0x6A JUMP JUMPDEST SWAP1 DUP2 DUP2 MUL SWAP2 DUP2 DUP4 DIV EQ SWAP1 ISZERO OR ISZERO PUSH2 0x7E JUMPI SWAP1 JUMP JUMPDEST PUSH1 0xFF AND PUSH1 0x4D DUP2 GT PUSH2 0x7E JUMPI PUSH1 0xA EXP SWAP1 JUMP INVALID LOG2 PUSH5 0x6970667358 0x22 SLT KECCAK256 0xDB BYTE 0x2B PUSH14 0x81372D5B02FD61BBCF9DC72F48C1 0xCF REVERT 0x2D 0xC1 SWAP2 DUP4 CREATE2 LT 0xC4 SWAP8 PUSH6 0xCF515264736F PUSH13 0x634300081C0033000000000000 "
        },
        "methodIdentifiers": {
          "scale(uint256,uint8,uint8)": "8085a82c"
        }
      }
    }
  }
}