{
  "contracts/MessageBridge.sol": {
    "MessageBridge": {
      "abi": [
        {
          "inputs": [
            {
              "internalType": "address",
              "name": "moveCall_",
              "type": "address"
            },
            {
              "internalType": "uint256",
              "name": "fee_",
              "type": "uint256"
            }
          ],
          "stateMutability": "nonpayable",
          "type": "constructor"
        },
        {
          "inputs": [
            {
              "internalType": "address",
              "name": "owner",
              "type": "address"
            }
          ],
          "name": "OwnableInvalidOwner",
          "type": "error"
        },
        {
          "inputs": [
            {
              "internalType": "address",
              "name": "account",
              "type": "address"
            }
          ],
          "name": "OwnableUnauthorizedAccount",
          "type": "error"
        },
        {
          "anonymous": false,
          "inputs": [
            {
              "indexed": false,
              "internalType": "bytes32",
              "name": "offChainSignatureId",
              "type": "bytes32"
            },
            {
              "indexed": false,
              "internalType": "bytes32",
              "name": "sourceUid",
              "type": "bytes32"
            },
            {
              "indexed": false,
              "internalType": "uint64",
              "name": "sourceChain",
              "type": "uint64"
            },
            {
              "indexed": false,
              "internalType": "bytes32",
              "name": "from",
              "type": "bytes32"
            },
            {
              "indexed": false,
              "internalType": "address",
              "name": "to",
              "type": "address"
            }
          ],
          "name": "MessageReceived",
          "type": "event"
        },
        {
          "anonymous": false,
          "inputs": [
            {
              "indexed": false,
              "internalType": "bytes32",
              "name": "uid",
              "type": "bytes32"
            },
            {
              "indexed": false,
              "internalType": "uint64",
              "name": "toChain",
              "type": "uint64"
            },
            {
              "indexed": false,
              "internalType": "address",
              "name": "to",
              "type": "address"
            },
            {
              "indexed": false,
              "internalType": "bytes",
              "name": "payload",
              "type": "bytes"
            }
          ],
          "name": "MessageSent",
          "type": "event"
        },
        {
          "anonymous": false,
          "inputs": [
            {
              "indexed": true,
              "internalType": "address",
              "name": "previousOwner",
              "type": "address"
            },
            {
              "indexed": true,
              "internalType": "address",
              "name": "newOwner",
              "type": "address"
            }
          ],
          "name": "OwnershipTransferred",
          "type": "event"
        },
        {
          "inputs": [],
          "name": "owner",
          "outputs": [
            {
              "internalType": "address",
              "name": "",
              "type": "address"
            }
          ],
          "stateMutability": "view",
          "type": "function"
        },
        {
          "inputs": [
            {
              "internalType": "bytes32",
              "name": "offChainSignatureId",
              "type": "bytes32"
            },
            {
              "internalType": "bytes32",
              "name": "sourceUid",
              "type": "bytes32"
            },
            {
              "internalType": "uint64",
              "name": "sourceChain",
              "type": "uint64"
            },
            {
              "internalType": "bytes32",
              "name": "from",
              "type": "bytes32"
            },
            {
              "internalType": "address",
              "name": "to",
              "type": "address"
            },
            {
              "internalType": "bytes",
              "name": "payload",
              "type": "bytes"
            }
          ],
          "name": "receiveMessage",
          "outputs": [],
          "stateMutability": "nonpayable",
          "type": "function"
        },
        {
          "inputs": [],
          "name": "renounceOwnership",
          "outputs": [],
          "stateMutability": "nonpayable",
          "type": "function"
        },
        {
          "inputs": [
            {
              "internalType": "uint64",
              "name": "toChain",
              "type": "uint64"
            },
            {
              "internalType": "address",
              "name": "to",
              "type": "address"
            },
            {
              "internalType": "bytes",
              "name": "payload",
              "type": "bytes"
            }
          ],
          "name": "sendMessage",
          "outputs": [
            {
              "internalType": "bytes32",
              "name": "uid",
              "type": "bytes32"
            }
          ],
          "stateMutability": "payable",
          "type": "function"
        },
        {
          "inputs": [
            {
              "internalType": "address",
              "name": "newOwner",
              "type": "address"
            }
          ],
          "name": "transferOwnership",
          "outputs": [],
          "stateMutability": "nonpayable",
          "type": "function"
        }
      ],
      "evm": {
        "bytecode": {
          "linkReferences": {},
          "object": "60803460da57601f6106c738819003918201601f19168301916001600160401b0383118484101760df57808492604094855283398101031260da5780516001600160a01b038116919082900360da576020015190331560c45760008054336001600160a01b0319821681178355604051949290916001600160a01b0316907f8be0079c531659141344cd1fd0a4f28419497f9722a3daafe3b4186f6b6457e09080a3600155600380546001600160a01b0319169190911790556105d190816100f68239f35b631e4fbdf760e01b600052600060045260246000fd5b600080fd5b634e487b7160e01b600052604160045260246000fdfe6080604052600436101561001257600080fd5b6000803560e01c80634a10ce9d146102e1578063715018a61461027b5780638da5cb5b14610255578063b90b8352146101065763f2fde38b1461005457600080fd5b34610103576020366003190112610103576004356001600160a01b03811680910361010157610081610559565b80156100d5576001600160a01b0382548273ffffffffffffffffffffffffffffffffffffffff198216178455167f8be0079c531659141344cd1fd0a4f28419497f9722a3daafe3b4186f6b6457e08380a380f35b6024827f1e4fbdf700000000000000000000000000000000000000000000000000000000815280600452fd5b505b80fd5b5060603660031901126101035760043567ffffffffffffffff811680910361010157602435906001600160a01b0382168092036102515760443567ffffffffffffffff811161024d5761015d9036906004016104bc565b916001543411610209577f2b046eaedd72143b31efbfc1753f3e57682918353770498fae99edbc3d83759690600254926101d86040516020810190868252336040820152604081526101b0606082610484565b5190209560405193849388855260208501526040840152608060608401526080830190610518565b0390a1600181018091116101f55760209250600255604051908152f35b602483634e487b7160e01b81526011600452fd5b606460405162461bcd60e51b815260206004820152601060248201527f494e53554646494349454e5420464545000000000000000000000000000000006044820152fd5b8380fd5b8280fd5b50346101035780600319360112610103576001600160a01b036020915416604051908152f35b5034610103578060031936011261010357610294610559565b806001600160a01b03815473ffffffffffffffffffffffffffffffffffffffff1981168355167f8be0079c531659141344cd1fd0a4f28419497f9722a3daafe3b4186f6b6457e08280a380f35b50346101035760c03660031901126101035760243560443567ffffffffffffffff811680910361025157606435608435916001600160a01b0383168093036104805760a43567ffffffffffffffff811161047c576103439036906004016104bc565b85843b156101035761039691604051809381927fcb32dbbe000000000000000000000000000000000000000000000000000000008352866004840152876024840152606060448401526064830190610518565b038183885af180156104715761045d575b50838552600460205260ff604086205416610419577f9934993be4bf5f17b4e88a5ef778d33259d95262df4aa9d838e9b72fe4a8eec79260a092604051926004358452866020850152604084015260608301526080820152a18152600460205260408120805460ff1916600117905580f35b606460405162461bcd60e51b815260206004820152601060248201527f414c52454144595f5245434549564544000000000000000000000000000000006044820152fd5b8561046a91969296610484565b93386103a7565b6040513d88823e3d90fd5b8580fd5b8480fd5b90601f8019910116810190811067ffffffffffffffff8211176104a657604052565b634e487b7160e01b600052604160045260246000fd5b81601f820112156105135780359067ffffffffffffffff82116104a657604051926104f1601f8401601f191660200185610484565b8284526020838301011161051357816000926020809301838601378301015290565b600080fd5b919082519283825260005b848110610544575050826000602080949584010152601f8019910116010190565b80602080928401015182828601015201610523565b6001600160a01b0360005416330361056d57565b7f118cdaa7000000000000000000000000000000000000000000000000000000006000523360045260246000fdfea26469706673582212208ae3aec2e9c12f999e0ad052ab2c9b867f60a71b94382386d2211fba0b0ac2cd64736f6c634300081c0033",
          "opcodes": "PUSH1 0x80 CALLVALUE PUSH1 0xDA JUMPI PUSH1 0x1F PUSH2 0x6C7 CODESIZE DUP2 SWAP1 SUB SWAP2 DUP3 ADD PUSH1 0x1F NOT AND DUP4 ADD SWAP2 PUSH1 0x1 PUSH1 0x1 PUSH1 0x40 SHL SUB DUP4 GT DUP5 DUP5 LT OR PUSH1 0xDF JUMPI DUP1 DUP5 SWAP3 PUSH1 0x40 SWAP5 DUP6 MSTORE DUP4 CODECOPY DUP2 ADD SUB SLT PUSH1 0xDA JUMPI DUP1 MLOAD PUSH1 0x1 PUSH1 0x1 PUSH1 0xA0 SHL SUB DUP2 AND SWAP2 SWAP1 DUP3 SWAP1 SUB PUSH1 0xDA JUMPI PUSH1 0x20 ADD MLOAD SWAP1 CALLER ISZERO PUSH1 0xC4 JUMPI PUSH1 0x0 DUP1 SLOAD CALLER PUSH1 0x1 PUSH1 0x1 PUSH1 0xA0 SHL SUB NOT DUP3 AND DUP2 OR DUP4 SSTORE PUSH1 0x40 MLOAD SWAP5 SWAP3 SWAP1 SWAP2 PUSH1 0x1 PUSH1 0x1 PUSH1 0xA0 SHL SUB AND SWAP1 PUSH32 0x8BE0079C531659141344CD1FD0A4F28419497F9722A3DAAFE3B4186F6B6457E0 SWAP1 DUP1 LOG3 PUSH1 0x1 SSTORE PUSH1 0x3 DUP1 SLOAD PUSH1 0x1 PUSH1 0x1 PUSH1 0xA0 SHL SUB NOT AND SWAP2 SWAP1 SWAP2 OR SWAP1 SSTORE PUSH2 0x5D1 SWAP1 DUP2 PUSH2 0xF6 DUP3 CODECOPY RETURN JUMPDEST PUSH4 0x1E4FBDF7 PUSH1 0xE0 SHL PUSH1 0x0 MSTORE PUSH1 0x0 PUSH1 0x4 MSTORE PUSH1 0x24 PUSH1 0x0 REVERT JUMPDEST PUSH1 0x0 DUP1 REVERT JUMPDEST PUSH4 0x4E487B71 PUSH1 0xE0 SHL PUSH1 0x0 MSTORE PUSH1 0x41 PUSH1 0x4 MSTORE PUSH1 0x24 PUSH1 0x0 REVERT INVALID PUSH1 0x80 PUSH1 0x40 MSTORE PUSH1 0x4 CALLDATASIZE LT ISZERO PUSH2 0x12 JUMPI PUSH1 0x0 DUP1 REVERT JUMPDEST PUSH1 0x0 DUP1 CALLDATALOAD PUSH1 0xE0 SHR DUP1 PUSH4 0x4A10CE9D EQ PUSH2 0x2E1 JUMPI DUP1 PUSH4 0x715018A6 EQ PUSH2 0x27B JUMPI DUP1 PUSH4 0x8DA5CB5B EQ PUSH2 0x255 JUMPI DUP1 PUSH4 0xB90B8352 EQ PUSH2 0x106 JUMPI PUSH4 0xF2FDE38B EQ PUSH2 0x54 JUMPI PUSH1 0x0 DUP1 REVERT JUMPDEST CALLVALUE PUSH2 0x103 JUMPI PUSH1 0x20 CALLDATASIZE PUSH1 0x3 NOT ADD SLT PUSH2 0x103 JUMPI PUSH1 0x4 CALLDATALOAD PUSH1 0x1 PUSH1 0x1 PUSH1 0xA0 SHL SUB DUP2 AND DUP1 SWAP2 SUB PUSH2 0x101 JUMPI PUSH2 0x81 PUSH2 0x559 JUMP JUMPDEST DUP1 ISZERO PUSH2 0xD5 JUMPI PUSH1 0x1 PUSH1 0x1 PUSH1 0xA0 SHL SUB DUP3 SLOAD DUP3 PUSH20 0xFFFFFFFFFFFFFFFFFFFFFFFFFFFFFFFFFFFFFFFF NOT DUP3 AND OR DUP5 SSTORE AND PUSH32 0x8BE0079C531659141344CD1FD0A4F28419497F9722A3DAAFE3B4186F6B6457E0 DUP4 DUP1 LOG3 DUP1 RETURN JUMPDEST PUSH1 0x24 DUP3 PUSH32 0x1E4FBDF700000000000000000000000000000000000000000000000000000000 DUP2 MSTORE DUP1 PUSH1 0x4 MSTORE REVERT JUMPDEST POP JUMPDEST DUP1 REVERT JUMPDEST POP PUSH1 0x60 CALLDATASIZE PUSH1 0x3 NOT ADD SLT PUSH2 0x103 JUMPI PUSH1 0x4 CALLDATALOAD PUSH8 0xFFFFFFFFFFFFFFFF DUP2 AND DUP1 SWAP2 SUB PUSH2 0x101 JUMPI PUSH1 0x24 CALLDATALOAD SWAP1 PUSH1 0x1 PUSH1 0x1 PUSH1 0xA0 SHL SUB DUP3 AND DUP1 SWAP3 SUB PUSH2 0x251 JUMPI PUSH1 0x44 CALLDATALOAD PUSH8 0xFFFFFFFFFFFFFFFF DUP2 GT PUSH2 0x24D JUMPI PUSH2 0x15D SWAP1 CALLDATASIZE SWAP1 PUSH1 0x4 ADD PUSH2 0x4BC JUMP JUMPDEST SWAP2 PUSH1 0x1 SLOAD CALLVALUE GT PUSH2 0x209 JUMPI PUSH32 0x2B046EAEDD72143B31EFBFC1753F3E57682918353770498FAE99EDBC3D837596 SWAP1 PUSH1 0x2 SLOAD SWAP3 PUSH2 0x1D8 PUSH1 0x40 MLOAD PUSH1 0x20 DUP2 ADD SWAP1 DUP7 DUP3 MSTORE CALLER PUSH1 0x40 DUP3 ADD MSTORE PUSH1 0x40 DUP2 MSTORE PUSH2 0x1B0 PUSH1 0x60 DUP3 PUSH2 0x484 JUMP JUMPDEST MLOAD SWAP1 KECCAK256 SWAP6 PUSH1 0x40 MLOAD SWAP4 DUP5 SWAP4 DUP9 DUP6 MSTORE PUSH1 0x20 DUP6 ADD MSTORE PUSH1 0x40 DUP5 ADD MSTORE PUSH1 0x80 PUSH1 0x60 DUP5 ADD MSTORE PUSH1 0x80 DUP4 ADD SWAP1 PUSH2 0x518 JUMP JUMPDEST SUB SWAP1 LOG1 PUSH1 0x1 DUP2 ADD DUP1 SWAP2 GT PUSH2 0x1F5 JUMPI PUSH1 0x20 SWAP3 POP PUSH1 0x2 SSTORE PUSH1 0x40 MLOAD SWAP1 DUP2 MSTORE RETURN JUMPDEST PUSH1 0x24 DUP4 PUSH4 0x4E487B71 PUSH1 0xE0 SHL DUP2 MSTORE PUSH1 0x11 PUSH1 0x4 MSTORE REVERT JUMPDEST PUSH1 0x64 PUSH1 0x40 MLOAD PUSH3 0x461BCD PUSH1 0xE5 SHL DUP2 MSTORE PUSH1 0x20 PUSH1 0x4 DUP3 ADD MSTORE PUSH1 0x10 PUSH1 0x24 DUP3 ADD MSTORE PUSH32 0x494E53554646494349454E542046454500000000000000000000000000000000 PUSH1 0x44 DUP3 ADD MSTORE REVERT JUMPDEST DUP4 DUP1 REVERT JUMPDEST DUP3 DUP1 REVERT JUMPDEST POP CALLVALUE PUSH2 0x103 JUMPI DUP1 PUSH1 0x3 NOT CALLDATASIZE ADD SLT PUSH2 0x103 JUMPI PUSH1 0x1 PUSH1 0x1 PUSH1 0xA0 SHL SUB PUSH1 0x20 SWAP2 SLOAD AND PUSH1 0x40 MLOAD SWAP1 DUP2 MSTORE RETURN JUMPDEST POP CALLVALUE PUSH2 0x103 JUMPI DUP1 PUSH1 0x3 NOT CALLDATASIZE ADD SLT PUSH2 0x103 JUMPI PUSH2 0x294 PUSH2 0x559 JUMP JUMPDEST DUP1 PUSH1 0x1 PUSH1 0x1 PUSH1 0xA0 SHL SUB DUP2 SLOAD PUSH20 0xFFFFFFFFFFFFFFFFFFFFFFFFFFFFFFFFFFFFFFFF NOT DUP2 AND DUP4 SSTORE AND PUSH32 0x8BE0079C531659141344CD1FD0A4F28419497F9722A3DAAFE3B4186F6B6457E0 DUP3 DUP1 LOG3 DUP1 RETURN JUMPDEST POP CALLVALUE PUSH2 0x103 JUMPI PUSH1 0xC0 CALLDATASIZE PUSH1 0x3 NOT ADD SLT PUSH2 0x103 JUMPI PUSH1 0x24 CALLDATALOAD PUSH1 0x44 CALLDATALOAD PUSH8 0xFFFFFFFFFFFFFFFF DUP2 AND DUP1 SWAP2 SUB PUSH2 0x251 JUMPI PUSH1 0x64 CALLDATALOAD PUSH1 0x84 CALLDATALOAD SWAP2 PUSH1 0x1 PUSH1 0x1 PUSH1 0xA0 SHL SUB DUP4 AND DUP1 SWAP4 SUB PUSH2 0x480 JUMPI PUSH1 0xA4 CALLDATALOAD PUSH8 0xFFFFFFFFFFFFFFFF DUP2 GT PUSH2 0x47C JUMPI PUSH2 0x343 SWAP1 CALLDATASIZE SWAP1 PUSH1 0x4 ADD PUSH2 0x4BC JUMP JUMPDEST DUP6 DUP5 EXTCODESIZE ISZERO PUSH2 0x103 JUMPI PUSH2 0x396 SWAP2 PUSH1 0x40 MLOAD DUP1 SWAP4 DUP2 SWAP3 PUSH32 0xCB32DBBE00000000000000000000000000000000000000000000000000000000 DUP4 MSTORE DUP7 PUSH1 0x4 DUP5 ADD MSTORE DUP8 PUSH1 0x24 DUP5 ADD MSTORE PUSH1 0x60 PUSH1 0x44 DUP5 ADD MSTORE PUSH1 0x64 DUP4 ADD SWAP1 PUSH2 0x518 JUMP JUMPDEST SUB DUP2 DUP4 DUP9 GAS CALL DUP1 ISZERO PUSH2 0x471 JUMPI PUSH2 0x45D JUMPI JUMPDEST POP DUP4 DUP6 MSTORE PUSH1 0x4 PUSH1 0x20 MSTORE PUSH1 0xFF PUSH1 0x40 DUP7 KECCAK256 SLOAD AND PUSH2 0x419 JUMPI PUSH32 0x9934993BE4BF5F17B4E88A5EF778D33259D95262DF4AA9D838E9B72FE4A8EEC7 SWAP3 PUSH1 0xA0 SWAP3 PUSH1 0x40 MLOAD SWAP3 PUSH1 0x4 CALLDATALOAD DUP5 MSTORE DUP7 PUSH1 0x20 DUP6 ADD MSTORE PUSH1 0x40 DUP5 ADD MSTORE PUSH1 0x60 DUP4 ADD MSTORE PUSH1 0x80 DUP3 ADD MSTORE LOG1 DUP2 MSTORE PUSH1 0x4 PUSH1 0x20 MSTORE PUSH1 0x40 DUP2 KECCAK256 DUP1 SLOAD PUSH1 0xFF NOT AND PUSH1 0x1 OR SWAP1 SSTORE DUP1 RETURN JUMPDEST PUSH1 0x64 PUSH1 0x40 MLOAD PUSH3 0x461BCD PUSH1 0xE5 SHL DUP2 MSTORE PUSH1 0x20 PUSH1 0x4 DUP3 ADD MSTORE PUSH1 0x10 PUSH1 0x24 DUP3 ADD MSTORE PUSH32 0x414C52454144595F524543454956454400000000000000000000000000000000 PUSH1 0x44 DUP3 ADD MSTORE REVERT JUMPDEST DUP6 PUSH2 0x46A SWAP2 SWAP7 SWAP3 SWAP7 PUSH2 0x484 JUMP JUMPDEST SWAP4 CODESIZE PUSH2 0x3A7 JUMP JUMPDEST PUSH1 0x40 MLOAD RETURNDATASIZE DUP9 DUP3 RETURNDATACOPY RETURNDATASIZE SWAP1 REVERT JUMPDEST DUP6 DUP1 REVERT JUMPDEST DUP5 DUP1 REVERT JUMPDEST SWAP1 PUSH1 0x1F DUP1 NOT SWAP2 ADD AND DUP2 ADD SWAP1 DUP2 LT PUSH8 0xFFFFFFFFFFFFFFFF DUP3 GT OR PUSH2 0x4A6 JUMPI PUSH1 0x40 MSTORE JUMP JUMPDEST PUSH4 0x4E487B71 PUSH1 0xE0 SHL PUSH1 0x0 MSTORE PUSH1 0x41 PUSH1 0x4 MSTORE PUSH1 0x24 PUSH1 0x0 REVERT JUMPDEST DUP2 PUSH1 0x1F DUP3 ADD SLT ISZERO PUSH2 0x513 JUMPI DUP1 CALLDATALOAD SWAP1 PUSH8 0xFFFFFFFFFFFFFFFF DUP3 GT PUSH2 0x4A6 JUMPI PUSH1 0x40 MLOAD SWAP3 PUSH2 0x4F1 PUSH1 0x1F DUP5 ADD PUSH1 0x1F NOT AND PUSH1 0x20 ADD DUP6 PUSH2 0x484 JUMP JUMPDEST DUP3 DUP5 MSTORE PUSH1 0x20 DUP4 DUP4 ADD ADD GT PUSH2 0x513 JUMPI DUP2 PUSH1 0x0 SWAP3 PUSH1 0x20 DUP1 SWAP4 ADD DUP4 DUP7 ADD CALLDATACOPY DUP4 ADD ADD MSTORE SWAP1 JUMP JUMPDEST PUSH1 0x0 DUP1 REVERT JUMPDEST SWAP2 SWAP1 DUP3 MLOAD SWAP3 DUP4 DUP3 MSTORE PUSH1 0x0 JUMPDEST DUP5 DUP2 LT PUSH2 0x544 JUMPI POP POP DUP3 PUSH1 0x0 PUSH1 0x20 DUP1 SWAP5 SWAP6 DUP5 ADD ADD MSTORE PUSH1 0x1F DUP1 NOT SWAP2 ADD AND ADD ADD SWAP1 JUMP JUMPDEST DUP1 PUSH1 0x20 DUP1 SWAP3 DUP5 ADD ADD MLOAD DUP3 DUP3 DUP7 ADD ADD MSTORE ADD PUSH2 0x523 JUMP JUMPDEST PUSH1 0x1 PUSH1 0x1 PUSH1 0xA0 SHL SUB PUSH1 0x0 SLOAD AND CALLER SUB PUSH2 0x56D JUMPI JUMP JUMPDEST PUSH32 0x118CDAA700000000000000000000000000000000000000000000000000000000 PUSH1 0x0 MSTORE CALLER PUSH1 0x4 MSTORE PUSH1 0x24 PUSH1 0x0 REVERT INVALID LOG2 PUSH5 0x6970667358 0x22 SLT KECCAK256 DUP11 0xE3 0xAE 0xC2 0xE9 0xC1 0x2F SWAP10 SWAP15 EXP 0xD0 MSTORE 0xAB 0x2C SWAP12 DUP7 PUSH32 0x60A71B94382386D2211FBA0B0AC2CD64736F6C634300081C0033000000000000 "
        },
        "methodIdentifiers": {
          "owner()": "8da5cb5b",
          "receiveMessage(bytes32,bytes32,uint64,bytes32,address,bytes)": "4a10ce9d",
          "renounceOwnership()": "715018a6",
          "sendMessage(uint64,address,bytes)": "b90b8352",
          "transferOwnership(address)": "f2fde38b"
        }
      }
    }
  }
}