{
  "contracts/TokenBridge.sol": {
    "TokenBridge": {
      "abi": [
        {
          "inputs": [
            {
              "internalType": "address",
              "name": "moveCall_",
              "type": "address"
            }
          ],
          "stateMutability": "nonpayable",
          "type": "constructor"
        },
        {
          "inputs": [
            {
              "internalType": "address",
              "name": "owner",
              "type": "address"
            }
          ],
          "name": "OwnableInvalidOwner",
          "type": "error"
        },
        {
          "inputs": [
            {
              "internalType": "address",
              "name": "account",
              "type": "address"
            }
          ],
          "name": "OwnableUnauthorizedAccount",
          "type": "error"
        },
        {
          "anonymous": false,
          "inputs": [
            {
              "indexed": true,
              "internalType": "address",
              "name": "previousOwner",
              "type": "address"
            },
            {
              "indexed": true,
              "internalType": "address",
              "name": "newOwner",
              "type": "address"
            }
          ],
          "name": "OwnershipTransferred",
          "type": "event"
        },
        {
          "anonymous": false,
          "inputs": [
            {
              "indexed": false,
              "internalType": "bytes32",
              "name": "offChainSignatureId",
              "type": "bytes32"
            },
            {
              "indexed": false,
              "internalType": "bytes32",
              "name": "sourceUid",
              "type": "bytes32"
            },
            {
              "indexed": false,
              "internalType": "uint64",
              "name": "sourceChain",
              "type": "uint64"
            },
            {
              "indexed": false,
              "internalType": "address",
              "name": "token",
              "type": "address"
            },
            {
              "indexed": false,
              "internalType": "uint8",
              "name": "decimals",
              "type": "uint8"
            },
            {
              "indexed": false,
              "internalType": "uint256",
              "name": "amount",
              "type": "uint256"
            },
            {
              "indexed": false,
              "internalType": "address",
              "name": "receiver",
              "type": "address"
            }
          ],
          "name": "TokenClaimed",
          "type": "event"
        },
        {
          "anonymous": false,
          "inputs": [
            {
              "indexed": true,
              "internalType": "bytes32",
              "name": "uid",
              "type": "bytes32"
            },
            {
              "indexed": false,
              "internalType": "address",
              "name": "token",
              "type": "address"
            },
            {
              "indexed": false,
              "internalType": "uint256",
              "name": "decimals",
              "type": "uint256"
            },
            {
              "indexed": false,
              "internalType": "uint256",
              "name": "amount",
              "type": "uint256"
            },
            {
              "indexed": false,
              "internalType": "uint64",
              "name": "toChain",
              "type": "uint64"
            },
            {
              "indexed": false,
              "internalType": "bytes32",
              "name": "receiver",
              "type": "bytes32"
            }
          ],
          "name": "TokenTransfer",
          "type": "event"
        },
        {
          "inputs": [
            {
              "internalType": "bytes32",
              "name": "offChainSignatureId",
              "type": "bytes32"
            },
            {
              "internalType": "bytes32",
              "name": "sourceUid",
              "type": "bytes32"
            },
            {
              "internalType": "uint64",
              "name": "sourceChain",
              "type": "uint64"
            },
            {
              "internalType": "address",
              "name": "token",
              "type": "address"
            },
            {
              "internalType": "uint8",
              "name": "decimals",
              "type": "uint8"
            },
            {
              "internalType": "uint256",
              "name": "amount",
              "type": "uint256"
            },
            {
              "internalType": "address",
              "name": "receiver",
              "type": "address"
            }
          ],
          "name": "attestTokenClaim",
          "outputs": [],
          "stateMutability": "nonpayable",
          "type": "function"
        },
        {
          "inputs": [
            {
              "internalType": "bytes32",
              "name": "sourceUid",
              "type": "bytes32"
            },
            {
              "internalType": "uint64",
              "name": "sourceChain",
              "type": "uint64"
            },
            {
              "internalType": "uint256",
              "name": "amount",
              "type": "uint256"
            },
            {
              "internalType": "uint8",
              "name": "decimals",
              "type": "uint8"
            },
            {
              "internalType": "address",
              "name": "receiver",
              "type": "address"
            }
          ],
          "name": "getClaimRoot",
          "outputs": [
            {
              "internalType": "bytes32",
              "name": "",
              "type": "bytes32"
            }
          ],
          "stateMutability": "pure",
          "type": "function"
        },
        {
          "inputs": [],
          "name": "getNonce",
          "outputs": [
            {
              "internalType": "uint256",
              "name": "",
              "type": "uint256"
            }
          ],
          "stateMutability": "view",
          "type": "function"
        },
        {
          "inputs": [],
          "name": "owner",
          "outputs": [
            {
              "internalType": "address",
              "name": "",
              "type": "address"
            }
          ],
          "stateMutability": "view",
          "type": "function"
        },
        {
          "inputs": [],
          "name": "renounceOwnership",
          "outputs": [],
          "stateMutability": "nonpayable",
          "type": "function"
        },
        {
          "inputs": [
            {
              "internalType": "address",
              "name": "token",
              "type": "address"
            },
            {
              "internalType": "uint256",
              "name": "amount",
              "type": "uint256"
            },
            {
              "internalType": "uint64",
              "name": "toChain",
              "type": "uint64"
            },
            {
              "internalType": "bytes32",
              "name": "receiver",
              "type": "bytes32"
            }
          ],
          "name": "tokenTranfer",
          "outputs": [
            {
              "internalType": "bytes32",
              "name": "uid",
              "type": "bytes32"
            }
          ],
          "stateMutability": "nonpayable",
          "type": "function"
        },
        {
          "inputs": [
            {
              "internalType": "uint64",
              "name": "toChain",
              "type": "uint64"
            },
            {
              "internalType": "bytes32",
              "name": "receiver",
              "type": "bytes32"
            }
          ],
          "name": "tokenTranferETH",
          "outputs": [
            {
              "internalType": "bytes32",
              "name": "uid",
              "type": "bytes32"
            }
          ],
          "stateMutability": "payable",
          "type": "function"
        },
        {
          "inputs": [
            {
              "internalType": "address",
              "name": "newOwner",
              "type": "address"
            }
          ],
          "name": "transferOwnership",
          "outputs": [],
          "stateMutability": "nonpayable",
          "type": "function"
        },
        {
          "stateMutability": "payable",
          "type": "receive"
        }
      ],
      "evm": {
        "bytecode": {
          "linkReferences": {
            "contracts/libs/MathLib.sol": {
              "MathLib": [
                {
                  "length": 20,
                  "start": 1245
                }
              ]
            }
          },
          "object": "60803460d157601f610a1c38819003918201601f19168301916001600160401b0383118484101760d65780849260209460405283398101031260d157516001600160a01b0381169081900360d157331560bb5760008054336001600160a01b0319821681178355604051939290916001600160a01b0316907f8be0079c531659141344cd1fd0a4f28419497f9722a3daafe3b4186f6b6457e09080a3600280546001600160a01b03191691909117905561092f90816100ed8239f35b631e4fbdf760e01b600052600060045260246000fd5b600080fd5b634e487b7160e01b600052604160045260246000fdfe6080604052600436101561001b575b361561001957600080fd5b005b60003560e01c806312755a281461071b578063715018a6146106b55780638da5cb5b1461068e5780639baddcf11461062d578063cd551abd14610311578063d087d288146102f3578063d71dcaed1461012c5763f2fde38b0361000e5734610127576020366003190112610127576001600160a01b036100996107e9565b6100a16108b7565b1680156100f8576001600160a01b036000548273ffffffffffffffffffffffffffffffffffffffff19821617600055167f8be0079c531659141344cd1fd0a4f28419497f9722a3daafe3b4186f6b6457e0600080a3005b7f1e4fbdf700000000000000000000000000000000000000000000000000000000600052600060045260246000fd5b600080fd5b34610127576080366003190112610127576101456107e9565b602435906101516107d2565b6001600160a01b036064359216906040519163313ce56760e01b8352602083600481845afa9283156102b6576000936102c2575b50604051907f23b872dd0000000000000000000000000000000000000000000000000000000082523360048301523060248301528560448301526020826064816000855af19485156102b65767ffffffffffffffff7fb0476d9c1d4abf2f87fd29d4eba882a93fbaa26856b5d71019e312dd83aa88359460a09460ff98610289575b506001549860405160208101908b82528660408201528260608201528560808201526080815261023788826107ff565b51902098899860405196875216602086015260408501521660608301526080820152a26001820180921161027357602091600155604051908152f35b634e487b7160e01b600052601160045260246000fd5b6102aa9060203d6020116102af575b6102a281836107ff565b81019061089f565b610207565b503d610298565b6040513d6000823e3d90fd5b6102e591935060203d6020116102ec575b6102dd81836107ff565b810190610886565b9185610185565b503d6102d3565b34610127576000366003190112610127576020600154604051908152f35b346101275760e03660031901126101275760243561032d6107d2565b606435906001600160a01b038216809203610127576084359260ff8416938481036101275760a43560c435956001600160a01b03871692838803610127576001600160a01b036002541633036101275786159788156105de57610396906012925b858989610837565b9788600052600360205260ff604060002054166105805760ff604051927f8085a82c00000000000000000000000000000000000000000000000000000000845285600485015284602485015216604483015260208260648173__$5db4157104702c58833070ef275fff1fae$__5af49182156102b657600092610549575b50156104ab57600080808093878282156104a2575bf1156102b6577f37599fda9fb8025b1643bf229602c851306b15ce91b5066fea95524e2cdbf2059567ffffffffffffffff60e0965b60405196600435885260208801521660408601526060850152608084015260a083015260c0820152a16000908152600360205260409020805460ff19166001179055005b506108fc610429565b9495604051957fa9059cbb00000000000000000000000000000000000000000000000000000000875284600488015260248701526020866044816000855af180156102b6577f37599fda9fb8025b1643bf229602c851306b15ce91b5066fea95524e2cdbf2059760e09767ffffffffffffffff9261052a575b5061045e565b6105429060203d6020116102af576102a281836107ff565b508a610524565b90916020823d602011610578575b81610564602093836107ff565b810103126105755750519089610414565b80fd5b3d9150610557565b60646040517f08c379a000000000000000000000000000000000000000000000000000000000815260206004820152600f60248201527f414c52454144595f434c41494d454400000000000000000000000000000000006044820152fd5b6040519063313ce56760e01b82526020826004818c5afa80156102b6576103969260009161060e575b509261038e565b610627915060203d6020116102ec576102dd81836107ff565b8b610607565b346101275760a03660031901126101275760243567ffffffffffffffff81168103610127576064359060ff82168203610127576084356001600160a01b0381168103610127576020926106869260443590600435610837565b604051908152f35b346101275760003660031901126101275760206001600160a01b0360005416604051908152f35b34610127576000366003190112610127576106ce6108b7565b60006001600160a01b03815473ffffffffffffffffffffffffffffffffffffffff1981168355167f8be0079c531659141344cd1fd0a4f28419497f9722a3daafe3b4186f6b6457e08280a3005b60403660031901126101275760043567ffffffffffffffff81168091036101275760243590600154917fb0476d9c1d4abf2f87fd29d4eba882a93fbaa26856b5d71019e312dd83aa883560a06040516020810190868252600060408201523460608201528460808201526080815261079383826107ff565b51902093849360405191600083526012602084015234604084015260608301526080820152a26001820180921161027357602091600155604051908152f35b6044359067ffffffffffffffff8216820361012757565b600435906001600160a01b038216820361012757565b90601f8019910116810190811067ffffffffffffffff82111761082157604052565b634e487b7160e01b600052604160045260246000fd5b93909260ff906001600160a01b039367ffffffffffffffff604051966020880198895216604087015260608601521660808401521660a082015260a0815261088060c0826107ff565b51902090565b90816020910312610127575160ff811681036101275790565b90816020910312610127575180151581036101275790565b6001600160a01b036000541633036108cb57565b7f118cdaa7000000000000000000000000000000000000000000000000000000006000523360045260246000fdfea2646970667358221220421a0213a47ce5a0a68f33bf1ff8cab81a18477eaf513420cebbf9050668f4f764736f6c634300081c0033",
          "opcodes": "PUSH1 0x80 CALLVALUE PUSH1 0xD1 JUMPI PUSH1 0x1F PUSH2 0xA1C CODESIZE DUP2 SWAP1 SUB SWAP2 DUP3 ADD PUSH1 0x1F NOT AND DUP4 ADD SWAP2 PUSH1 0x1 PUSH1 0x1 PUSH1 0x40 SHL SUB DUP4 GT DUP5 DUP5 LT OR PUSH1 0xD6 JUMPI DUP1 DUP5 SWAP3 PUSH1 0x20 SWAP5 PUSH1 0x40 MSTORE DUP4 CODECOPY DUP2 ADD SUB SLT PUSH1 0xD1 JUMPI MLOAD PUSH1 0x1 PUSH1 0x1 PUSH1 0xA0 SHL SUB DUP2 AND SWAP1 DUP2 SWAP1 SUB PUSH1 0xD1 JUMPI CALLER ISZERO PUSH1 0xBB JUMPI PUSH1 0x0 DUP1 SLOAD CALLER PUSH1 0x1 PUSH1 0x1 PUSH1 0xA0 SHL SUB NOT DUP3 AND DUP2 OR DUP4 SSTORE PUSH1 0x40 MLOAD SWAP4 SWAP3 SWAP1 SWAP2 PUSH1 0x1 PUSH1 0x1 PUSH1 0xA0 SHL SUB AND SWAP1 PUSH32 0x8BE0079C531659141344CD1FD0A4F28419497F9722A3DAAFE3B4186F6B6457E0 SWAP1 DUP1 LOG3 PUSH1 0x2 DUP1 SLOAD PUSH1 0x1 PUSH1 0x1 PUSH1 0xA0 SHL SUB NOT AND SWAP2 SWAP1 SWAP2 OR SWAP1 SSTORE PUSH2 0x92F SWAP1 DUP2 PUSH2 0xED DUP3 CODECOPY RETURN JUMPDEST PUSH4 0x1E4FBDF7 PUSH1 0xE0 SHL PUSH1 0x0 MSTORE PUSH1 0x0 PUSH1 0x4 MSTORE PUSH1 0x24 PUSH1 0x0 REVERT JUMPDEST PUSH1 0x0 DUP1 REVERT JUMPDEST PUSH4 0x4E487B71 PUSH1 0xE0 SHL PUSH1 0x0 MSTORE PUSH1 0x41 PUSH1 0x4 MSTORE PUSH1 0x24 PUSH1 0x0 REVERT INVALID PUSH1 0x80 PUSH1 0x40 MSTORE PUSH1 0x4 CALLDATASIZE LT ISZERO PUSH2 0x1B JUMPI JUMPDEST CALLDATASIZE ISZERO PUSH2 0x19 JUMPI PUSH1 0x0 DUP1 REVERT JUMPDEST STOP JUMPDEST PUSH1 0x0 CALLDATALOAD PUSH1 0xE0 SHR DUP1 PUSH4 0x12755A28 EQ PUSH2 0x71B JUMPI DUP1 PUSH4 0x715018A6 EQ PUSH2 0x6B5 JUMPI DUP1 PUSH4 0x8DA5CB5B EQ PUSH2 0x68E JUMPI DUP1 PUSH4 0x9BADDCF1 EQ PUSH2 0x62D JUMPI DUP1 PUSH4 0xCD551ABD EQ PUSH2 0x311 JUMPI DUP1 PUSH4 0xD087D288 EQ PUSH2 0x2F3 JUMPI DUP1 PUSH4 0xD71DCAED EQ PUSH2 0x12C JUMPI PUSH4 0xF2FDE38B SUB PUSH2 0xE JUMPI CALLVALUE PUSH2 0x127 JUMPI PUSH1 0x20 CALLDATASIZE PUSH1 0x3 NOT ADD SLT PUSH2 0x127 JUMPI PUSH1 0x1 PUSH1 0x1 PUSH1 0xA0 SHL SUB PUSH2 0x99 PUSH2 0x7E9 JUMP JUMPDEST PUSH2 0xA1 PUSH2 0x8B7 JUMP JUMPDEST AND DUP1 ISZERO PUSH2 0xF8 JUMPI PUSH1 0x1 PUSH1 0x1 PUSH1 0xA0 SHL SUB PUSH1 0x0 SLOAD DUP3 PUSH20 0xFFFFFFFFFFFFFFFFFFFFFFFFFFFFFFFFFFFFFFFF NOT DUP3 AND OR PUSH1 0x0 SSTORE AND PUSH32 0x8BE0079C531659141344CD1FD0A4F28419497F9722A3DAAFE3B4186F6B6457E0 PUSH1 0x0 DUP1 LOG3 STOP JUMPDEST PUSH32 0x1E4FBDF700000000000000000000000000000000000000000000000000000000 PUSH1 0x0 MSTORE PUSH1 0x0 PUSH1 0x4 MSTORE PUSH1 0x24 PUSH1 0x0 REVERT JUMPDEST PUSH1 0x0 DUP1 REVERT JUMPDEST CALLVALUE PUSH2 0x127 JUMPI PUSH1 0x80 CALLDATASIZE PUSH1 0x3 NOT ADD SLT PUSH2 0x127 JUMPI PUSH2 0x145 PUSH2 0x7E9 JUMP JUMPDEST PUSH1 0x24 CALLDATALOAD SWAP1 PUSH2 0x151 PUSH2 0x7D2 JUMP JUMPDEST PUSH1 0x1 PUSH1 0x1 PUSH1 0xA0 SHL SUB PUSH1 0x64 CALLDATALOAD SWAP3 AND SWAP1 PUSH1 0x40 MLOAD SWAP2 PUSH4 0x313CE567 PUSH1 0xE0 SHL DUP4 MSTORE PUSH1 0x20 DUP4 PUSH1 0x4 DUP2 DUP5 GAS STATICCALL SWAP3 DUP4 ISZERO PUSH2 0x2B6 JUMPI PUSH1 0x0 SWAP4 PUSH2 0x2C2 JUMPI JUMPDEST POP PUSH1 0x40 MLOAD SWAP1 PUSH32 0x23B872DD00000000000000000000000000000000000000000000000000000000 DUP3 MSTORE CALLER PUSH1 0x4 DUP4 ADD MSTORE ADDRESS PUSH1 0x24 DUP4 ADD MSTORE DUP6 PUSH1 0x44 DUP4 ADD MSTORE PUSH1 0x20 DUP3 PUSH1 0x64 DUP2 PUSH1 0x0 DUP6 GAS CALL SWAP5 DUP6 ISZERO PUSH2 0x2B6 JUMPI PUSH8 0xFFFFFFFFFFFFFFFF PUSH32 0xB0476D9C1D4ABF2F87FD29D4EBA882A93FBAA26856B5D71019E312DD83AA8835 SWAP5 PUSH1 0xA0 SWAP5 PUSH1 0xFF SWAP9 PUSH2 0x289 JUMPI JUMPDEST POP PUSH1 0x1 SLOAD SWAP9 PUSH1 0x40 MLOAD PUSH1 0x20 DUP2 ADD SWAP1 DUP12 DUP3 MSTORE DUP7 PUSH1 0x40 DUP3 ADD MSTORE DUP3 PUSH1 0x60 DUP3 ADD MSTORE DUP6 PUSH1 0x80 DUP3 ADD MSTORE PUSH1 0x80 DUP2 MSTORE PUSH2 0x237 DUP9 DUP3 PUSH2 0x7FF JUMP JUMPDEST MLOAD SWAP1 KECCAK256 SWAP9 DUP10 SWAP9 PUSH1 0x40 MLOAD SWAP7 DUP8 MSTORE AND PUSH1 0x20 DUP7 ADD MSTORE PUSH1 0x40 DUP6 ADD MSTORE AND PUSH1 0x60 DUP4 ADD MSTORE PUSH1 0x80 DUP3 ADD MSTORE LOG2 PUSH1 0x1 DUP3 ADD DUP1 SWAP3 GT PUSH2 0x273 JUMPI PUSH1 0x20 SWAP2 PUSH1 0x1 SSTORE PUSH1 0x40 MLOAD SWAP1 DUP2 MSTORE RETURN JUMPDEST PUSH4 0x4E487B71 PUSH1 0xE0 SHL PUSH1 0x0 MSTORE PUSH1 0x11 PUSH1 0x4 MSTORE PUSH1 0x24 PUSH1 0x0 REVERT JUMPDEST PUSH2 0x2AA SWAP1 PUSH1 0x20 RETURNDATASIZE PUSH1 0x20 GT PUSH2 0x2AF JUMPI JUMPDEST PUSH2 0x2A2 DUP2 DUP4 PUSH2 0x7FF JUMP JUMPDEST DUP2 ADD SWAP1 PUSH2 0x89F JUMP JUMPDEST PUSH2 0x207 JUMP JUMPDEST POP RETURNDATASIZE PUSH2 0x298 JUMP JUMPDEST PUSH1 0x40 MLOAD RETURNDATASIZE PUSH1 0x0 DUP3 RETURNDATACOPY RETURNDATASIZE SWAP1 REVERT JUMPDEST PUSH2 0x2E5 SWAP2 SWAP4 POP PUSH1 0x20 RETURNDATASIZE PUSH1 0x20 GT PUSH2 0x2EC JUMPI JUMPDEST PUSH2 0x2DD DUP2 DUP4 PUSH2 0x7FF JUMP JUMPDEST DUP2 ADD SWAP1 PUSH2 0x886 JUMP JUMPDEST SWAP2 DUP6 PUSH2 0x185 JUMP JUMPDEST POP RETURNDATASIZE PUSH2 0x2D3 JUMP JUMPDEST CALLVALUE PUSH2 0x127 JUMPI PUSH1 0x0 CALLDATASIZE PUSH1 0x3 NOT ADD SLT PUSH2 0x127 JUMPI PUSH1 0x20 PUSH1 0x1 SLOAD PUSH1 0x40 MLOAD SWAP1 DUP2 MSTORE RETURN JUMPDEST CALLVALUE PUSH2 0x127 JUMPI PUSH1 0xE0 CALLDATASIZE PUSH1 0x3 NOT ADD SLT PUSH2 0x127 JUMPI PUSH1 0x24 CALLDATALOAD PUSH2 0x32D PUSH2 0x7D2 JUMP JUMPDEST PUSH1 0x64 CALLDATALOAD SWAP1 PUSH1 0x1 PUSH1 0x1 PUSH1 0xA0 SHL SUB DUP3 AND DUP1 SWAP3 SUB PUSH2 0x127 JUMPI PUSH1 0x84 CALLDATALOAD SWAP3 PUSH1 0xFF DUP5 AND SWAP4 DUP5 DUP2 SUB PUSH2 0x127 JUMPI PUSH1 0xA4 CALLDATALOAD PUSH1 0xC4 CALLDATALOAD SWAP6 PUSH1 0x1 PUSH1 0x1 PUSH1 0xA0 SHL SUB DUP8 AND SWAP3 DUP4 DUP9 SUB PUSH2 0x127 JUMPI PUSH1 0x1 PUSH1 0x1 PUSH1 0xA0 SHL SUB PUSH1 0x2 SLOAD AND CALLER SUB PUSH2 0x127 JUMPI DUP7 ISZERO SWAP8 DUP9 ISZERO PUSH2 0x5DE JUMPI PUSH2 0x396 SWAP1 PUSH1 0x12 SWAP3 JUMPDEST DUP6 DUP10 DUP10 PUSH2 0x837 JUMP JUMPDEST SWAP8 DUP9 PUSH1 0x0 MSTORE PUSH1 0x3 PUSH1 0x20 MSTORE PUSH1 0xFF PUSH1 0x40 PUSH1 0x0 KECCAK256 SLOAD AND PUSH2 0x580 JUMPI PUSH1 0xFF PUSH1 0x40 MLOAD SWAP3 PUSH32 0x8085A82C00000000000000000000000000000000000000000000000000000000 DUP5 MSTORE DUP6 PUSH1 0x4 DUP6 ADD MSTORE DUP5 PUSH1 0x24 DUP6 ADD MSTORE AND PUSH1 0x44 DUP4 ADD MSTORE PUSH1 0x20 DUP3 PUSH1 0x64 DUP2 PUSH20 0x0 GAS DELEGATECALL SWAP2 DUP3 ISZERO PUSH2 0x2B6 JUMPI PUSH1 0x0 SWAP3 PUSH2 0x549 JUMPI JUMPDEST POP ISZERO PUSH2 0x4AB JUMPI PUSH1 0x0 DUP1 DUP1 DUP1 SWAP4 DUP8 DUP3 DUP3 ISZERO PUSH2 0x4A2 JUMPI JUMPDEST CALL ISZERO PUSH2 0x2B6 JUMPI PUSH32 0x37599FDA9FB8025B1643BF229602C851306B15CE91B5066FEA95524E2CDBF205 SWAP6 PUSH8 0xFFFFFFFFFFFFFFFF PUSH1 0xE0 SWAP7 JUMPDEST PUSH1 0x40 MLOAD SWAP7 PUSH1 0x4 CALLDATALOAD DUP9 MSTORE PUSH1 0x20 DUP9 ADD MSTORE AND PUSH1 0x40 DUP7 ADD MSTORE PUSH1 0x60 DUP6 ADD MSTORE PUSH1 0x80 DUP5 ADD MSTORE PUSH1 0xA0 DUP4 ADD MSTORE PUSH1 0xC0 DUP3 ADD MSTORE LOG1 PUSH1 0x0 SWAP1 DUP2 MSTORE PUSH1 0x3 PUSH1 0x20 MSTORE PUSH1 0x40 SWAP1 KECCAK256 DUP1 SLOAD PUSH1 0xFF NOT AND PUSH1 0x1 OR SWAP1 SSTORE STOP JUMPDEST POP PUSH2 0x8FC PUSH2 0x429 JUMP JUMPDEST SWAP5 SWAP6 PUSH1 0x40 MLOAD SWAP6 PUSH32 0xA9059CBB00000000000000000000000000000000000000000000000000000000 DUP8 MSTORE DUP5 PUSH1 0x4 DUP9 ADD MSTORE PUSH1 0x24 DUP8 ADD MSTORE PUSH1 0x20 DUP7 PUSH1 0x44 DUP2 PUSH1 0x0 DUP6 GAS CALL DUP1 ISZERO PUSH2 0x2B6 JUMPI PUSH32 0x37599FDA9FB8025B1643BF229602C851306B15CE91B5066FEA95524E2CDBF205 SWAP8 PUSH1 0xE0 SWAP8 PUSH8 0xFFFFFFFFFFFFFFFF SWAP3 PUSH2 0x52A JUMPI JUMPDEST POP PUSH2 0x45E JUMP JUMPDEST PUSH2 0x542 SWAP1 PUSH1 0x20 RETURNDATASIZE PUSH1 0x20 GT PUSH2 0x2AF JUMPI PUSH2 0x2A2 DUP2 DUP4 PUSH2 0x7FF JUMP JUMPDEST POP DUP11 PUSH2 0x524 JUMP JUMPDEST SWAP1 SWAP2 PUSH1 0x20 DUP3 RETURNDATASIZE PUSH1 0x20 GT PUSH2 0x578 JUMPI JUMPDEST DUP2 PUSH2 0x564 PUSH1 0x20 SWAP4 DUP4 PUSH2 0x7FF JUMP JUMPDEST DUP2 ADD SUB SLT PUSH2 0x575 JUMPI POP MLOAD SWAP1 DUP10 PUSH2 0x414 JUMP JUMPDEST DUP1 REVERT JUMPDEST RETURNDATASIZE SWAP2 POP PUSH2 0x557 JUMP JUMPDEST PUSH1 0x64 PUSH1 0x40 MLOAD PUSH32 0x8C379A000000000000000000000000000000000000000000000000000000000 DUP2 MSTORE PUSH1 0x20 PUSH1 0x4 DUP3 ADD MSTORE PUSH1 0xF PUSH1 0x24 DUP3 ADD MSTORE PUSH32 0x414C52454144595F434C41494D45440000000000000000000000000000000000 PUSH1 0x44 DUP3 ADD MSTORE REVERT JUMPDEST PUSH1 0x40 MLOAD SWAP1 PUSH4 0x313CE567 PUSH1 0xE0 SHL DUP3 MSTORE PUSH1 0x20 DUP3 PUSH1 0x4 DUP2 DUP13 GAS STATICCALL DUP1 ISZERO PUSH2 0x2B6 JUMPI PUSH2 0x396 SWAP3 PUSH1 0x0 SWAP2 PUSH2 0x60E JUMPI JUMPDEST POP SWAP3 PUSH2 0x38E JUMP JUMPDEST PUSH2 0x627 SWAP2 POP PUSH1 0x20 RETURNDATASIZE PUSH1 0x20 GT PUSH2 0x2EC JUMPI PUSH2 0x2DD DUP2 DUP4 PUSH2 0x7FF JUMP JUMPDEST DUP12 PUSH2 0x607 JUMP JUMPDEST CALLVALUE PUSH2 0x127 JUMPI PUSH1 0xA0 CALLDATASIZE PUSH1 0x3 NOT ADD SLT PUSH2 0x127 JUMPI PUSH1 0x24 CALLDATALOAD PUSH8 0xFFFFFFFFFFFFFFFF DUP2 AND DUP2 SUB PUSH2 0x127 JUMPI PUSH1 0x64 CALLDATALOAD SWAP1 PUSH1 0xFF DUP3 AND DUP3 SUB PUSH2 0x127 JUMPI PUSH1 0x84 CALLDATALOAD PUSH1 0x1 PUSH1 0x1 PUSH1 0xA0 SHL SUB DUP2 AND DUP2 SUB PUSH2 0x127 JUMPI PUSH1 0x20 SWAP3 PUSH2 0x686 SWAP3 PUSH1 0x44 CALLDATALOAD SWAP1 PUSH1 0x4 CALLDATALOAD PUSH2 0x837 JUMP JUMPDEST PUSH1 0x40 MLOAD SWAP1 DUP2 MSTORE RETURN JUMPDEST CALLVALUE PUSH2 0x127 JUMPI PUSH1 0x0 CALLDATASIZE PUSH1 0x3 NOT ADD SLT PUSH2 0x127 JUMPI PUSH1 0x20 PUSH1 0x1 PUSH1 0x1 PUSH1 0xA0 SHL SUB PUSH1 0x0 SLOAD AND PUSH1 0x40 MLOAD SWAP1 DUP2 MSTORE RETURN JUMPDEST CALLVALUE PUSH2 0x127 JUMPI PUSH1 0x0 CALLDATASIZE PUSH1 0x3 NOT ADD SLT PUSH2 0x127 JUMPI PUSH2 0x6CE PUSH2 0x8B7 JUMP JUMPDEST PUSH1 0x0 PUSH1 0x1 PUSH1 0x1 PUSH1 0xA0 SHL SUB DUP2 SLOAD PUSH20 0xFFFFFFFFFFFFFFFFFFFFFFFFFFFFFFFFFFFFFFFF NOT DUP2 AND DUP4 SSTORE AND PUSH32 0x8BE0079C531659141344CD1FD0A4F28419497F9722A3DAAFE3B4186F6B6457E0 DUP3 DUP1 LOG3 STOP JUMPDEST PUSH1 0x40 CALLDATASIZE PUSH1 0x3 NOT ADD SLT PUSH2 0x127 JUMPI PUSH1 0x4 CALLDATALOAD PUSH8 0xFFFFFFFFFFFFFFFF DUP2 AND DUP1 SWAP2 SUB PUSH2 0x127 JUMPI PUSH1 0x24 CALLDATALOAD SWAP1 PUSH1 0x1 SLOAD SWAP2 PUSH32 0xB0476D9C1D4ABF2F87FD29D4EBA882A93FBAA26856B5D71019E312DD83AA8835 PUSH1 0xA0 PUSH1 0x40 MLOAD PUSH1 0x20 DUP2 ADD SWAP1 DUP7 DUP3 MSTORE PUSH1 0x0 PUSH1 0x40 DUP3 ADD MSTORE CALLVALUE PUSH1 0x60 DUP3 ADD MSTORE DUP5 PUSH1 0x80 DUP3 ADD MSTORE PUSH1 0x80 DUP2 MSTORE PUSH2 0x793 DUP4 DUP3 PUSH2 0x7FF JUMP JUMPDEST MLOAD SWAP1 KECCAK256 SWAP4 DUP5 SWAP4 PUSH1 0x40 MLOAD SWAP2 PUSH1 0x0 DUP4 MSTORE PUSH1 0x12 PUSH1 0x20 DUP5 ADD MSTORE CALLVALUE PUSH1 0x40 DUP5 ADD MSTORE PUSH1 0x60 DUP4 ADD MSTORE PUSH1 0x80 DUP3 ADD MSTORE LOG2 PUSH1 0x1 DUP3 ADD DUP1 SWAP3 GT PUSH2 0x273 JUMPI PUSH1 0x20 SWAP2 PUSH1 0x1 SSTORE PUSH1 0x40 MLOAD SWAP1 DUP2 MSTORE RETURN JUMPDEST PUSH1 0x44 CALLDATALOAD SWAP1 PUSH8 0xFFFFFFFFFFFFFFFF DUP3 AND DUP3 SUB PUSH2 0x127 JUMPI JUMP JUMPDEST PUSH1 0x4 CALLDATALOAD SWAP1 PUSH1 0x1 PUSH1 0x1 PUSH1 0xA0 SHL SUB DUP3 AND DUP3 SUB PUSH2 0x127 JUMPI JUMP JUMPDEST SWAP1 PUSH1 0x1F DUP1 NOT SWAP2 ADD AND DUP2 ADD SWAP1 DUP2 LT PUSH8 0xFFFFFFFFFFFFFFFF DUP3 GT OR PUSH2 0x821 JUMPI PUSH1 0x40 MSTORE JUMP JUMPDEST PUSH4 0x4E487B71 PUSH1 0xE0 SHL PUSH1 0x0 MSTORE PUSH1 0x41 PUSH1 0x4 MSTORE PUSH1 0x24 PUSH1 0x0 REVERT JUMPDEST SWAP4 SWAP1 SWAP3 PUSH1 0xFF SWAP1 PUSH1 0x1 PUSH1 0x1 PUSH1 0xA0 SHL SUB SWAP4 PUSH8 0xFFFFFFFFFFFFFFFF PUSH1 0x40 MLOAD SWAP7 PUSH1 0x20 DUP9 ADD SWAP9 DUP10 MSTORE AND PUSH1 0x40 DUP8 ADD MSTORE PUSH1 0x60 DUP7 ADD MSTORE AND PUSH1 0x80 DUP5 ADD MSTORE AND PUSH1 0xA0 DUP3 ADD MSTORE PUSH1 0xA0 DUP2 MSTORE PUSH2 0x880 PUSH1 0xC0 DUP3 PUSH2 0x7FF JUMP JUMPDEST MLOAD SWAP1 KECCAK256 SWAP1 JUMP JUMPDEST SWAP1 DUP2 PUSH1 0x20 SWAP2 SUB SLT PUSH2 0x127 JUMPI MLOAD PUSH1 0xFF DUP2 AND DUP2 SUB PUSH2 0x127 JUMPI SWAP1 JUMP JUMPDEST SWAP1 DUP2 PUSH1 0x20 SWAP2 SUB SLT PUSH2 0x127 JUMPI MLOAD DUP1 ISZERO ISZERO DUP2 SUB PUSH2 0x127 JUMPI SWAP1 JUMP JUMPDEST PUSH1 0x1 PUSH1 0x1 PUSH1 0xA0 SHL SUB PUSH1 0x0 SLOAD AND CALLER SUB PUSH2 0x8CB JUMPI JUMP JUMPDEST PUSH32 0x118CDAA700000000000000000000000000000000000000000000000000000000 PUSH1 0x0 MSTORE CALLER PUSH1 0x4 MSTORE PUSH1 0x24 PUSH1 0x0 REVERT INVALID LOG2 PUSH5 0x6970667358 0x22 SLT KECCAK256 TIMESTAMP BYTE MUL SGT LOG4 PUSH29 0xE5A0A68F33BF1FF8CAB81A18477EAF513420CEBBF9050668F4F764736F PUSH13 0x634300081C0033000000000000 "
        },
        "methodIdentifiers": {
          "attestTokenClaim(bytes32,bytes32,uint64,address,uint8,uint256,address)": "cd551abd",
          "getClaimRoot(bytes32,uint64,uint256,uint8,address)": "9baddcf1",
          "getNonce()": "d087d288",
          "owner()": "8da5cb5b",
          "renounceOwnership()": "715018a6",
          "tokenTranfer(address,uint256,uint64,bytes32)": "d71dcaed",
          "tokenTranferETH(uint64,bytes32)": "12755a28",
          "transferOwnership(address)": "f2fde38b"
        }
      }
    }
  }
}