{
  "contracts/MoveCall.sol": {
    "MoveCall": {
      "abi": [
        {
          "inputs": [],
          "stateMutability": "nonpayable",
          "type": "constructor"
        },
        {
          "inputs": [
            {
              "internalType": "address",
              "name": "owner",
              "type": "address"
            }
          ],
          "name": "OwnableInvalidOwner",
          "type": "error"
        },
        {
          "inputs": [
            {
              "internalType": "address",
              "name": "account",
              "type": "address"
            }
          ],
          "name": "OwnableUnauthorizedAccount",
          "type": "error"
        },
        {
          "anonymous": false,
          "inputs": [
            {
              "indexed": true,
              "internalType": "address",
              "name": "previousOwner",
              "type": "address"
            },
            {
              "indexed": true,
              "internalType": "address",
              "name": "newOwner",
              "type": "address"
            }
          ],
          "name": "OwnershipTransferred",
          "type": "event"
        },
        {
          "inputs": [
            {
              "internalType": "bytes32",
              "name": "offChainSignatureId",
              "type": "bytes32"
            },
            {
              "internalType": "bytes32",
              "name": "sourceUid",
              "type": "bytes32"
            },
            {
              "internalType": "uint64",
              "name": "sourceChain",
              "type": "uint64"
            },
            {
              "internalType": "address",
              "name": "token",
              "type": "address"
            },
            {
              "internalType": "uint256",
              "name": "amount",
              "type": "uint256"
            },
            {
              "internalType": "uint8",
              "name": "decimals",
              "type": "uint8"
            },
            {
              "internalType": "address",
              "name": "receiver",
              "type": "address"
            }
          ],
          "name": "attestTokenClaim",
          "outputs": [],
          "stateMutability": "nonpayable",
          "type": "function"
        },
        {
          "inputs": [],
          "name": "owner",
          "outputs": [
            {
              "internalType": "address",
              "name": "",
              "type": "address"
            }
          ],
          "stateMutability": "view",
          "type": "function"
        },
        {
          "inputs": [
            {
              "internalType": "bytes32",
              "name": "offChainSignatureId",
              "type": "bytes32"
            },
            {
              "internalType": "bytes32",
              "name": "sourceUid",
              "type": "bytes32"
            },
            {
              "internalType": "uint64",
              "name": "sourceChain",
              "type": "uint64"
            },
            {
              "internalType": "bytes32",
              "name": "from",
              "type": "bytes32"
            },
            {
              "internalType": "address",
              "name": "to",
              "type": "address"
            },
            {
              "internalType": "bytes",
              "name": "payload",
              "type": "bytes"
            }
          ],
          "name": "receiveMessage",
          "outputs": [],
          "stateMutability": "nonpayable",
          "type": "function"
        },
        {
          "inputs": [],
          "name": "renounceOwnership",
          "outputs": [],
          "stateMutability": "nonpayable",
          "type": "function"
        },
        {
          "inputs": [
            {
              "internalType": "address",
              "name": "newOwner",
              "type": "address"
            }
          ],
          "name": "transferOwnership",
          "outputs": [],
          "stateMutability": "nonpayable",
          "type": "function"
        }
      ],
      "evm": {
        "bytecode": {
          "linkReferences": {},
          "object": "608080604052346075573315605f5760008054336001600160a01b0319821681178355916001600160a01b03909116907f8be0079c531659141344cd1fd0a4f28419497f9722a3daafe3b4186f6b6457e09080a3610515908161007b8239f35b631e4fbdf760e01b600052600060045260246000fd5b600080fdfe608080604052600436101561001357600080fd5b600090813560e01c9081634a10ce9d146102a6575080634b1e28d314610196578063715018a6146101305780638da5cb5b1461010a5763f2fde38b1461005857600080fd5b34610107576020366003190112610107576004356001600160a01b0381168091036101055761008561049d565b80156100d9576001600160a01b0382548273ffffffffffffffffffffffffffffffffffffffff198216178455167f8be0079c531659141344cd1fd0a4f28419497f9722a3daafe3b4186f6b6457e08380a380f35b6024827f1e4fbdf700000000000000000000000000000000000000000000000000000000815280600452fd5b505b80fd5b50346101075780600319360112610107576001600160a01b036020915416604051908152f35b503461010757806003193601126101075761014961049d565b806001600160a01b03815473ffffffffffffffffffffffffffffffffffffffff1981168355167f8be0079c531659141344cd1fd0a4f28419497f9722a3daafe3b4186f6b6457e08280a380f35b50346101075760e036600319011261010757806101b1610449565b606435906001600160a01b0382168092036102a25760a4359060ff82168092036102a05760c4356001600160a01b03811680910361029c576101f161049d565b6001600160a01b036001541691823b15610298578567ffffffffffffffff9360e493829660405198899788967fcd551abd000000000000000000000000000000000000000000000000000000008852600435600489015260243560248901521660448701526064860152608485015260843560a485015260c48401525af1801561028d5761027c5750f35b8161028691610465565b6101075780f35b6040513d84823e3d90fd5b8580fd5b8480fd5b505b5050fd5b9050346101055760c0366003190112610105576102c1610449565b90608435906001600160a01b0382168092036104455760a43567ffffffffffffffff811161029c573660238201121561029c57806004013567ffffffffffffffff81116104315785919061031f601f8201601f191660200185610465565b808452366024828401011161042d5780602460209301838601378301015261034561049d565b6001600160a01b036002541691823b1561029c5792849167ffffffffffffffff946040519586937f4a10ce9d000000000000000000000000000000000000000000000000000000008552600435600486015260243560248601521660448401526064356064840152608483015260c060a48301528051908160c4840152835b82811061041257505092818360e482878383819a84010152601f801991011681010301925af18015610405576103f75780f35b61040091610465565b388180f35b50604051903d90823e3d90fd5b602081830181015160e48984010152889550879450016103c4565b8280fd5b602486634e487b7160e01b81526041600452fd5b8380fd5b6044359067ffffffffffffffff8216820361046057565b600080fd5b90601f8019910116810190811067ffffffffffffffff82111761048757604052565b634e487b7160e01b600052604160045260246000fd5b6001600160a01b036000541633036104b157565b7f118cdaa7000000000000000000000000000000000000000000000000000000006000523360045260246000fdfea264697066735822122057d17d36053bbb4607a85a72b30cd795c7c21c3b76d2614ec1567c07d99e970964736f6c634300081c0033",
          "opcodes": "PUSH1 0x80 DUP1 PUSH1 0x40 MSTORE CALLVALUE PUSH1 0x75 JUMPI CALLER ISZERO PUSH1 0x5F JUMPI PUSH1 0x0 DUP1 SLOAD CALLER PUSH1 0x1 PUSH1 0x1 PUSH1 0xA0 SHL SUB NOT DUP3 AND DUP2 OR DUP4 SSTORE SWAP2 PUSH1 0x1 PUSH1 0x1 PUSH1 0xA0 SHL SUB SWAP1 SWAP2 AND SWAP1 PUSH32 0x8BE0079C531659141344CD1FD0A4F28419497F9722A3DAAFE3B4186F6B6457E0 SWAP1 DUP1 LOG3 PUSH2 0x515 SWAP1 DUP2 PUSH2 0x7B DUP3 CODECOPY RETURN JUMPDEST PUSH4 0x1E4FBDF7 PUSH1 0xE0 SHL PUSH1 0x0 MSTORE PUSH1 0x0 PUSH1 0x4 MSTORE PUSH1 0x24 PUSH1 0x0 REVERT JUMPDEST PUSH1 0x0 DUP1 REVERT INVALID PUSH1 0x80 DUP1 PUSH1 0x40 MSTORE PUSH1 0x4 CALLDATASIZE LT ISZERO PUSH2 0x13 JUMPI PUSH1 0x0 DUP1 REVERT JUMPDEST PUSH1 0x0 SWAP1 DUP2 CALLDATALOAD PUSH1 0xE0 SHR SWAP1 DUP2 PUSH4 0x4A10CE9D EQ PUSH2 0x2A6 JUMPI POP DUP1 PUSH4 0x4B1E28D3 EQ PUSH2 0x196 JUMPI DUP1 PUSH4 0x715018A6 EQ PUSH2 0x130 JUMPI DUP1 PUSH4 0x8DA5CB5B EQ PUSH2 0x10A JUMPI PUSH4 0xF2FDE38B EQ PUSH2 0x58 JUMPI PUSH1 0x0 DUP1 REVERT JUMPDEST CALLVALUE PUSH2 0x107 JUMPI PUSH1 0x20 CALLDATASIZE PUSH1 0x3 NOT ADD SLT PUSH2 0x107 JUMPI PUSH1 0x4 CALLDATALOAD PUSH1 0x1 PUSH1 0x1 PUSH1 0xA0 SHL SUB DUP2 AND DUP1 SWAP2 SUB PUSH2 0x105 JUMPI PUSH2 0x85 PUSH2 0x49D JUMP JUMPDEST DUP1 ISZERO PUSH2 0xD9 JUMPI PUSH1 0x1 PUSH1 0x1 PUSH1 0xA0 SHL SUB DUP3 SLOAD DUP3 PUSH20 0xFFFFFFFFFFFFFFFFFFFFFFFFFFFFFFFFFFFFFFFF NOT DUP3 AND OR DUP5 SSTORE AND PUSH32 0x8BE0079C531659141344CD1FD0A4F28419497F9722A3DAAFE3B4186F6B6457E0 DUP4 DUP1 LOG3 DUP1 RETURN JUMPDEST PUSH1 0x24 DUP3 PUSH32 0x1E4FBDF700000000000000000000000000000000000000000000000000000000 DUP2 MSTORE DUP1 PUSH1 0x4 MSTORE REVERT JUMPDEST POP JUMPDEST DUP1 REVERT JUMPDEST POP CALLVALUE PUSH2 0x107 JUMPI DUP1 PUSH1 0x3 NOT CALLDATASIZE ADD SLT PUSH2 0x107 JUMPI PUSH1 0x1 PUSH1 0x1 PUSH1 0xA0 SHL SUB PUSH1 0x20 SWAP2 SLOAD AND PUSH1 0x40 MLOAD SWAP1 DUP2 MSTORE RETURN JUMPDEST POP CALLVALUE PUSH2 0x107 JUMPI DUP1 PUSH1 0x3 NOT CALLDATASIZE ADD SLT PUSH2 0x107 JUMPI PUSH2 0x149 PUSH2 0x49D JUMP JUMPDEST DUP1 PUSH1 0x1 PUSH1 0x1 PUSH1 0xA0 SHL SUB DUP2 SLOAD PUSH20 0xFFFFFFFFFFFFFFFFFFFFFFFFFFFFFFFFFFFFFFFF NOT DUP2 AND DUP4 SSTORE AND PUSH32 0x8BE0079C531659141344CD1FD0A4F28419497F9722A3DAAFE3B4186F6B6457E0 DUP3 DUP1 LOG3 DUP1 RETURN JUMPDEST POP CALLVALUE PUSH2 0x107 JUMPI PUSH1 0xE0 CALLDATASIZE PUSH1 0x3 NOT ADD SLT PUSH2 0x107 JUMPI DUP1 PUSH2 0x1B1 PUSH2 0x449 JUMP JUMPDEST PUSH1 0x64 CALLDATALOAD SWAP1 PUSH1 0x1 PUSH1 0x1 PUSH1 0xA0 SHL SUB DUP3 AND DUP1 SWAP3 SUB PUSH2 0x2A2 JUMPI PUSH1 0xA4 CALLDATALOAD SWAP1 PUSH1 0xFF DUP3 AND DUP1 SWAP3 SUB PUSH2 0x2A0 JUMPI PUSH1 0xC4 CALLDATALOAD PUSH1 0x1 PUSH1 0x1 PUSH1 0xA0 SHL SUB DUP2 AND DUP1 SWAP2 SUB PUSH2 0x29C JUMPI PUSH2 0x1F1 PUSH2 0x49D JUMP JUMPDEST PUSH1 0x1 PUSH1 0x1 PUSH1 0xA0 SHL SUB PUSH1 0x1 SLOAD AND SWAP2 DUP3 EXTCODESIZE ISZERO PUSH2 0x298 JUMPI DUP6 PUSH8 0xFFFFFFFFFFFFFFFF SWAP4 PUSH1 0xE4 SWAP4 DUP3 SWAP7 PUSH1 0x40 MLOAD SWAP9 DUP10 SWAP8 DUP9 SWAP7 PUSH32 0xCD551ABD00000000000000000000000000000000000000000000000000000000 DUP9 MSTORE PUSH1 0x4 CALLDATALOAD PUSH1 0x4 DUP10 ADD MSTORE PUSH1 0x24 CALLDATALOAD PUSH1 0x24 DUP10 ADD MSTORE AND PUSH1 0x44 DUP8 ADD MSTORE PUSH1 0x64 DUP7 ADD MSTORE PUSH1 0x84 DUP6 ADD MSTORE PUSH1 0x84 CALLDATALOAD PUSH1 0xA4 DUP6 ADD MSTORE PUSH1 0xC4 DUP5 ADD MSTORE GAS CALL DUP1 ISZERO PUSH2 0x28D JUMPI PUSH2 0x27C JUMPI POP RETURN JUMPDEST DUP2 PUSH2 0x286 SWAP2 PUSH2 0x465 JUMP JUMPDEST PUSH2 0x107 JUMPI DUP1 RETURN JUMPDEST PUSH1 0x40 MLOAD RETURNDATASIZE DUP5 DUP3 RETURNDATACOPY RETURNDATASIZE SWAP1 REVERT JUMPDEST DUP6 DUP1 REVERT JUMPDEST DUP5 DUP1 REVERT JUMPDEST POP JUMPDEST POP POP REVERT JUMPDEST SWAP1 POP CALLVALUE PUSH2 0x105 JUMPI PUSH1 0xC0 CALLDATASIZE PUSH1 0x3 NOT ADD SLT PUSH2 0x105 JUMPI PUSH2 0x2C1 PUSH2 0x449 JUMP JUMPDEST SWAP1 PUSH1 0x84 CALLDATALOAD SWAP1 PUSH1 0x1 PUSH1 0x1 PUSH1 0xA0 SHL SUB DUP3 AND DUP1 SWAP3 SUB PUSH2 0x445 JUMPI PUSH1 0xA4 CALLDATALOAD PUSH8 0xFFFFFFFFFFFFFFFF DUP2 GT PUSH2 0x29C JUMPI CALLDATASIZE PUSH1 0x23 DUP3 ADD SLT ISZERO PUSH2 0x29C JUMPI DUP1 PUSH1 0x4 ADD CALLDATALOAD PUSH8 0xFFFFFFFFFFFFFFFF DUP2 GT PUSH2 0x431 JUMPI DUP6 SWAP2 SWAP1 PUSH2 0x31F PUSH1 0x1F DUP3 ADD PUSH1 0x1F NOT AND PUSH1 0x20 ADD DUP6 PUSH2 0x465 JUMP JUMPDEST DUP1 DUP5 MSTORE CALLDATASIZE PUSH1 0x24 DUP3 DUP5 ADD ADD GT PUSH2 0x42D JUMPI DUP1 PUSH1 0x24 PUSH1 0x20 SWAP4 ADD DUP4 DUP7 ADD CALLDATACOPY DUP4 ADD ADD MSTORE PUSH2 0x345 PUSH2 0x49D JUMP JUMPDEST PUSH1 0x1 PUSH1 0x1 PUSH1 0xA0 SHL SUB PUSH1 0x2 SLOAD AND SWAP2 DUP3 EXTCODESIZE ISZERO PUSH2 0x29C JUMPI SWAP3 DUP5 SWAP2 PUSH8 0xFFFFFFFFFFFFFFFF SWAP5 PUSH1 0x40 MLOAD SWAP6 DUP7 SWAP4 PUSH32 0x4A10CE9D00000000000000000000000000000000000000000000000000000000 DUP6 MSTORE PUSH1 0x4 CALLDATALOAD PUSH1 0x4 DUP7 ADD MSTORE PUSH1 0x24 CALLDATALOAD PUSH1 0x24 DUP7 ADD MSTORE AND PUSH1 0x44 DUP5 ADD MSTORE PUSH1 0x64 CALLDATALOAD PUSH1 0x64 DUP5 ADD MSTORE PUSH1 0x84 DUP4 ADD MSTORE PUSH1 0xC0 PUSH1 0xA4 DUP4 ADD MSTORE DUP1 MLOAD SWAP1 DUP2 PUSH1 0xC4 DUP5 ADD MSTORE DUP4 JUMPDEST DUP3 DUP2 LT PUSH2 0x412 JUMPI POP POP SWAP3 DUP2 DUP4 PUSH1 0xE4 DUP3 DUP8 DUP4 DUP4 DUP2 SWAP11 DUP5 ADD ADD MSTORE PUSH1 0x1F DUP1 NOT SWAP2 ADD AND DUP2 ADD SUB ADD SWAP3 GAS CALL DUP1 ISZERO PUSH2 0x405 JUMPI PUSH2 0x3F7 JUMPI DUP1 RETURN JUMPDEST PUSH2 0x400 SWAP2 PUSH2 0x465 JUMP JUMPDEST CODESIZE DUP2 DUP1 RETURN JUMPDEST POP PUSH1 0x40 MLOAD SWAP1 RETURNDATASIZE SWAP1 DUP3 RETURNDATACOPY RETURNDATASIZE SWAP1 REVERT JUMPDEST PUSH1 0x20 DUP2 DUP4 ADD DUP2 ADD MLOAD PUSH1 0xE4 DUP10 DUP5 ADD ADD MSTORE DUP9 SWAP6 POP DUP8 SWAP5 POP ADD PUSH2 0x3C4 JUMP JUMPDEST DUP3 DUP1 REVERT JUMPDEST PUSH1 0x24 DUP7 PUSH4 0x4E487B71 PUSH1 0xE0 SHL DUP2 MSTORE PUSH1 0x41 PUSH1 0x4 MSTORE REVERT JUMPDEST DUP4 DUP1 REVERT JUMPDEST PUSH1 0x44 CALLDATALOAD SWAP1 PUSH8 0xFFFFFFFFFFFFFFFF DUP3 AND DUP3 SUB PUSH2 0x460 JUMPI JUMP JUMPDEST PUSH1 0x0 DUP1 REVERT JUMPDEST SWAP1 PUSH1 0x1F DUP1 NOT SWAP2 ADD AND DUP2 ADD SWAP1 DUP2 LT PUSH8 0xFFFFFFFFFFFFFFFF DUP3 GT OR PUSH2 0x487 JUMPI PUSH1 0x40 MSTORE JUMP JUMPDEST PUSH4 0x4E487B71 PUSH1 0xE0 SHL PUSH1 0x0 MSTORE PUSH1 0x41 PUSH1 0x4 MSTORE PUSH1 0x24 PUSH1 0x0 REVERT JUMPDEST PUSH1 0x1 PUSH1 0x1 PUSH1 0xA0 SHL SUB PUSH1 0x0 SLOAD AND CALLER SUB PUSH2 0x4B1 JUMPI JUMP JUMPDEST PUSH32 0x118CDAA700000000000000000000000000000000000000000000000000000000 PUSH1 0x0 MSTORE CALLER PUSH1 0x4 MSTORE PUSH1 0x24 PUSH1 0x0 REVERT INVALID LOG2 PUSH5 0x6970667358 0x22 SLT KECCAK256 JUMPI 0xD1 PUSH30 0x36053BBB4607A85A72B30CD795C7C21C3B76D2614EC1567C07D99E970964 PUSH20 0x6F6C634300081C00330000000000000000000000 "
        },
        "methodIdentifiers": {
          "attestTokenClaim(bytes32,bytes32,uint64,address,uint256,uint8,address)": "4b1e28d3",
          "owner()": "8da5cb5b",
          "receiveMessage(bytes32,bytes32,uint64,bytes32,address,bytes)": "4a10ce9d",
          "renounceOwnership()": "715018a6",
          "transferOwnership(address)": "f2fde38b"
        }
      }
    }
  }
}