{
  "contracts/TokenBridge.sol": {
    "TokenBridge": {
      "abi": [
        {
          "inputs": [
            {
              "internalType": "address",
              "name": "moveCall_",
              "type": "address"
            }
          ],
          "stateMutability": "nonpayable",
          "type": "constructor"
        },
        {
          "inputs": [
            {
              "internalType": "address",
              "name": "owner",
              "type": "address"
            }
          ],
          "name": "OwnableInvalidOwner",
          "type": "error"
        },
        {
          "inputs": [
            {
              "internalType": "address",
              "name": "account",
              "type": "address"
            }
          ],
          "name": "OwnableUnauthorizedAccount",
          "type": "error"
        },
        {
          "anonymous": false,
          "inputs": [
            {
              "indexed": true,
              "internalType": "address",
              "name": "previousOwner",
              "type": "address"
            },
            {
              "indexed": true,
              "internalType": "address",
              "name": "newOwner",
              "type": "address"
            }
          ],
          "name": "OwnershipTransferred",
          "type": "event"
        },
        {
          "anonymous": false,
          "inputs": [
            {
              "indexed": false,
              "internalType": "bytes32",
              "name": "offChainSignatureId",
              "type": "bytes32"
            },
            {
              "indexed": false,
              "internalType": "bytes32",
              "name": "sourceUid",
              "type": "bytes32"
            },
            {
              "indexed": false,
              "internalType": "uint64",
              "name": "sourceChain",
              "type": "uint64"
            },
            {
              "indexed": false,
              "internalType": "address",
              "name": "token",
              "type": "address"
            },
            {
              "indexed": false,
              "internalType": "uint8",
              "name": "decimals",
              "type": "uint8"
            },
            {
              "indexed": false,
              "internalType": "uint256",
              "name": "amount",
              "type": "uint256"
            },
            {
              "indexed": false,
              "internalType": "address",
              "name": "receiver",
              "type": "address"
            }
          ],
          "name": "TokenClaimed",
          "type": "event"
        },
        {
          "anonymous": false,
          "inputs": [
            {
              "indexed": true,
              "internalType": "bytes32",
              "name": "uid",
              "type": "bytes32"
            },
            {
              "indexed": false,
              "internalType": "address",
              "name": "token",
              "type": "address"
            },
            {
              "indexed": false,
              "internalType": "uint256",
              "name": "decimals",
              "type": "uint256"
            },
            {
              "indexed": false,
              "internalType": "uint256",
              "name": "amount",
              "type": "uint256"
            },
            {
              "indexed": false,
              "internalType": "uint64",
              "name": "toChain",
              "type": "uint64"
            },
            {
              "indexed": false,
              "internalType": "bytes32",
              "name": "receiver",
              "type": "bytes32"
            }
          ],
          "name": "TokenTransfer",
          "type": "event"
        },
        {
          "inputs": [
            {
              "internalType": "bytes32",
              "name": "offChainSignatureId",
              "type": "bytes32"
            },
            {
              "internalType": "bytes32",
              "name": "sourceUid",
              "type": "bytes32"
            },
            {
              "internalType": "uint64",
              "name": "sourceChain",
              "type": "uint64"
            },
            {
              "internalType": "address",
              "name": "token",
              "type": "address"
            },
            {
              "internalType": "uint8",
              "name": "decimals",
              "type": "uint8"
            },
            {
              "internalType": "uint256",
              "name": "amount",
              "type": "uint256"
            },
            {
              "internalType": "address",
              "name": "receiver",
              "type": "address"
            }
          ],
          "name": "attestTokenClaim",
          "outputs": [],
          "stateMutability": "nonpayable",
          "type": "function"
        },
        {
          "inputs": [
            {
              "internalType": "bytes32",
              "name": "sourceUid",
              "type": "bytes32"
            },
            {
              "internalType": "uint64",
              "name": "sourceChain",
              "type": "uint64"
            },
            {
              "internalType": "uint256",
              "name": "amount",
              "type": "uint256"
            },
            {
              "internalType": "uint8",
              "name": "decimals",
              "type": "uint8"
            },
            {
              "internalType": "address",
              "name": "receiver",
              "type": "address"
            }
          ],
          "name": "getClaimRoot",
          "outputs": [
            {
              "internalType": "bytes32",
              "name": "",
              "type": "bytes32"
            }
          ],
          "stateMutability": "pure",
          "type": "function"
        },
        {
          "inputs": [],
          "name": "getNonce",
          "outputs": [
            {
              "internalType": "uint256",
              "name": "",
              "type": "uint256"
            }
          ],
          "stateMutability": "view",
          "type": "function"
        },
        {
          "inputs": [],
          "name": "owner",
          "outputs": [
            {
              "internalType": "address",
              "name": "",
              "type": "address"
            }
          ],
          "stateMutability": "view",
          "type": "function"
        },
        {
          "inputs": [],
          "name": "renounceOwnership",
          "outputs": [],
          "stateMutability": "nonpayable",
          "type": "function"
        },
        {
          "inputs": [
            {
              "internalType": "address",
              "name": "token",
              "type": "address"
            },
            {
              "internalType": "uint256",
              "name": "amount",
              "type": "uint256"
            },
            {
              "internalType": "uint64",
              "name": "toChain",
              "type": "uint64"
            },
            {
              "internalType": "bytes32",
              "name": "receiver",
              "type": "bytes32"
            }
          ],
          "name": "tokenTransfer",
          "outputs": [
            {
              "internalType": "bytes32",
              "name": "uid",
              "type": "bytes32"
            }
          ],
          "stateMutability": "nonpayable",
          "type": "function"
        },
        {
          "inputs": [
            {
              "internalType": "uint64",
              "name": "toChain",
              "type": "uint64"
            },
            {
              "internalType": "bytes32",
              "name": "receiver",
              "type": "bytes32"
            }
          ],
          "name": "tokenTransferETH",
          "outputs": [
            {
              "internalType": "bytes32",
              "name": "uid",
              "type": "bytes32"
            }
          ],
          "stateMutability": "payable",
          "type": "function"
        },
        {
          "inputs": [
            {
              "internalType": "address",
              "name": "newOwner",
              "type": "address"
            }
          ],
          "name": "transferOwnership",
          "outputs": [],
          "stateMutability": "nonpayable",
          "type": "function"
        },
        {
          "stateMutability": "payable",
          "type": "receive"
        }
      ],
      "evm": {
        "bytecode": {
          "linkReferences": {
            "contracts/libs/MathLib.sol": {
              "MathLib": [
                {
                  "length": 20,
                  "start": 995
                }
              ]
            }
          },
          "object": "60803460d157601f610a1c38819003918201601f19168301916001600160401b0383118484101760d65780849260209460405283398101031260d157516001600160a01b0381169081900360d157331560bb5760008054336001600160a01b0319821681178355604051939290916001600160a01b0316907f8be0079c531659141344cd1fd0a4f28419497f9722a3daafe3b4186f6b6457e09080a3600280546001600160a01b03191691909117905561092f90816100ed8239f35b631e4fbdf760e01b600052600060045260246000fd5b600080fd5b634e487b7160e01b600052604160045260246000fdfe6080604052600436101561001b575b361561001957600080fd5b005b60003560e01c8063715018a61461076c5780637fca0a08146105e75780638da5cb5b146105c05780639baddcf11461055f578063cd551abd14610217578063d087d288146101f9578063d53980f01461012c5763f2fde38b0361000e5734610127576020366003190112610127576001600160a01b036100996107d2565b6100a16108b7565b1680156100f8576001600160a01b036000548273ffffffffffffffffffffffffffffffffffffffff19821617600055167f8be0079c531659141344cd1fd0a4f28419497f9722a3daafe3b4186f6b6457e0600080a3005b7f1e4fbdf700000000000000000000000000000000000000000000000000000000600052600060045260246000fd5b600080fd5b60403660031901126101275760043567ffffffffffffffff81168091036101275760243590600154917fb0476d9c1d4abf2f87fd29d4eba882a93fbaa26856b5d71019e312dd83aa883560a0604051602081019086825260006040820152346060820152846080820152608081526101a483826107ff565b51902093849360405191600083526012602084015234604084015260608301526080820152a2600182018092116101e357602091600155604051908152f35b634e487b7160e01b600052601160045260246000fd5b34610127576000366003190112610127576020600154604051908152f35b346101275760e0366003190112610127576024356102336107e8565b606435906001600160a01b038216809203610127576084359260ff8416938481036101275760a43560c435956001600160a01b03871692838803610127576001600160a01b036002541633036101275786159788156105005761029c906012925b858989610868565b9788600052600360205260ff604060002054166104a25760ff604051927f8085a82c00000000000000000000000000000000000000000000000000000000845285600485015284602485015216604483015260208260648173__$5db4157104702c58833070ef275fff1fae$__5af49182156103a85760009261046b575b50156103bd57600080808093878282156103b4575bf1156103a8577f37599fda9fb8025b1643bf229602c851306b15ce91b5066fea95524e2cdbf2059567ffffffffffffffff60e0965b60405196600435885260208801521660408601526060850152608084015260a083015260c0820152a16000908152600360205260409020805460ff19166001179055005b6040513d6000823e3d90fd5b506108fc61032f565b9495604051957fa9059cbb00000000000000000000000000000000000000000000000000000000875284600488015260248701526020866044816000855af180156103a8577f37599fda9fb8025b1643bf229602c851306b15ce91b5066fea95524e2cdbf2059760e09767ffffffffffffffff9261043c575b50610364565b61045d9060203d602011610464575b61045581836107ff565b810190610850565b508a610436565b503d61044b565b90916020823d60201161049a575b81610486602093836107ff565b81010312610497575051908961031a565b80fd5b3d9150610479565b60646040517f08c379a000000000000000000000000000000000000000000000000000000000815260206004820152600f60248201527f414c52454144595f434c41494d454400000000000000000000000000000000006044820152fd5b6040519063313ce56760e01b82526020826004818c5afa80156103a85761029c92600091610530575b5092610294565b610552915060203d602011610558575b61054a81836107ff565b810190610837565b8b610529565b503d610540565b346101275760a03660031901126101275760243567ffffffffffffffff81168103610127576064359060ff82168203610127576084356001600160a01b0381168103610127576020926105b89260443590600435610868565b604051908152f35b346101275760003660031901126101275760206001600160a01b0360005416604051908152f35b34610127576080366003190112610127576106006107d2565b6024359061060c6107e8565b6001600160a01b036064359216906040519163313ce56760e01b8352602083600481845afa9283156103a85760009361074b575b50604051907f23b872dd0000000000000000000000000000000000000000000000000000000082523360048301523060248301528560448301526020826064816000855af19485156103a85767ffffffffffffffff7fb0476d9c1d4abf2f87fd29d4eba882a93fbaa26856b5d71019e312dd83aa88359460a09460ff9861072e575b506001549860405160208101908b8252866040820152826060820152856080820152608081526106f288826107ff565b51902098899860405196875216602086015260408501521660608301526080820152a2600182018092116101e357602091600155604051908152f35b6107469060203d6020116104645761045581836107ff565b6106c2565b61076591935060203d6020116105585761054a81836107ff565b9185610640565b34610127576000366003190112610127576107856108b7565b60006001600160a01b03815473ffffffffffffffffffffffffffffffffffffffff1981168355167f8be0079c531659141344cd1fd0a4f28419497f9722a3daafe3b4186f6b6457e08280a3005b600435906001600160a01b038216820361012757565b6044359067ffffffffffffffff8216820361012757565b90601f8019910116810190811067ffffffffffffffff82111761082157604052565b634e487b7160e01b600052604160045260246000fd5b90816020910312610127575160ff811681036101275790565b90816020910312610127575180151581036101275790565b93909260ff906001600160a01b039367ffffffffffffffff604051966020880198895216604087015260608601521660808401521660a082015260a081526108b160c0826107ff565b51902090565b6001600160a01b036000541633036108cb57565b7f118cdaa7000000000000000000000000000000000000000000000000000000006000523360045260246000fdfea2646970667358221220bbd350a570ea2ecf6b824fd3c9b2bc320c2b2da733f3f611e4f122e0047ba4f464736f6c634300081c0033",
          "opcodes": "PUSH1 0x80 CALLVALUE PUSH1 0xD1 JUMPI PUSH1 0x1F PUSH2 0xA1C CODESIZE DUP2 SWAP1 SUB SWAP2 DUP3 ADD PUSH1 0x1F NOT AND DUP4 ADD SWAP2 PUSH1 0x1 PUSH1 0x1 PUSH1 0x40 SHL SUB DUP4 GT DUP5 DUP5 LT OR PUSH1 0xD6 JUMPI DUP1 DUP5 SWAP3 PUSH1 0x20 SWAP5 PUSH1 0x40 MSTORE DUP4 CODECOPY DUP2 ADD SUB SLT PUSH1 0xD1 JUMPI MLOAD PUSH1 0x1 PUSH1 0x1 PUSH1 0xA0 SHL SUB DUP2 AND SWAP1 DUP2 SWAP1 SUB PUSH1 0xD1 JUMPI CALLER ISZERO PUSH1 0xBB JUMPI PUSH1 0x0 DUP1 SLOAD CALLER PUSH1 0x1 PUSH1 0x1 PUSH1 0xA0 SHL SUB NOT DUP3 AND DUP2 OR DUP4 SSTORE PUSH1 0x40 MLOAD SWAP4 SWAP3 SWAP1 SWAP2 PUSH1 0x1 PUSH1 0x1 PUSH1 0xA0 SHL SUB AND SWAP1 PUSH32 0x8BE0079C531659141344CD1FD0A4F28419497F9722A3DAAFE3B4186F6B6457E0 SWAP1 DUP1 LOG3 PUSH1 0x2 DUP1 SLOAD PUSH1 0x1 PUSH1 0x1 PUSH1 0xA0 SHL SUB NOT AND SWAP2 SWAP1 SWAP2 OR SWAP1 SSTORE PUSH2 0x92F SWAP1 DUP2 PUSH2 0xED DUP3 CODECOPY RETURN JUMPDEST PUSH4 0x1E4FBDF7 PUSH1 0xE0 SHL PUSH1 0x0 MSTORE PUSH1 0x0 PUSH1 0x4 MSTORE PUSH1 0x24 PUSH1 0x0 REVERT JUMPDEST PUSH1 0x0 DUP1 REVERT JUMPDEST PUSH4 0x4E487B71 PUSH1 0xE0 SHL PUSH1 0x0 MSTORE PUSH1 0x41 PUSH1 0x4 MSTORE PUSH1 0x24 PUSH1 0x0 REVERT INVALID PUSH1 0x80 PUSH1 0x40 MSTORE PUSH1 0x4 CALLDATASIZE LT ISZERO PUSH2 0x1B JUMPI JUMPDEST CALLDATASIZE ISZERO PUSH2 0x19 JUMPI PUSH1 0x0 DUP1 REVERT JUMPDEST STOP JUMPDEST PUSH1 0x0 CALLDATALOAD PUSH1 0xE0 SHR DUP1 PUSH4 0x715018A6 EQ PUSH2 0x76C JUMPI DUP1 PUSH4 0x7FCA0A08 EQ PUSH2 0x5E7 JUMPI DUP1 PUSH4 0x8DA5CB5B EQ PUSH2 0x5C0 JUMPI DUP1 PUSH4 0x9BADDCF1 EQ PUSH2 0x55F JUMPI DUP1 PUSH4 0xCD551ABD EQ PUSH2 0x217 JUMPI DUP1 PUSH4 0xD087D288 EQ PUSH2 0x1F9 JUMPI DUP1 PUSH4 0xD53980F0 EQ PUSH2 0x12C JUMPI PUSH4 0xF2FDE38B SUB PUSH2 0xE JUMPI CALLVALUE PUSH2 0x127 JUMPI PUSH1 0x20 CALLDATASIZE PUSH1 0x3 NOT ADD SLT PUSH2 0x127 JUMPI PUSH1 0x1 PUSH1 0x1 PUSH1 0xA0 SHL SUB PUSH2 0x99 PUSH2 0x7D2 JUMP JUMPDEST PUSH2 0xA1 PUSH2 0x8B7 JUMP JUMPDEST AND DUP1 ISZERO PUSH2 0xF8 JUMPI PUSH1 0x1 PUSH1 0x1 PUSH1 0xA0 SHL SUB PUSH1 0x0 SLOAD DUP3 PUSH20 0xFFFFFFFFFFFFFFFFFFFFFFFFFFFFFFFFFFFFFFFF NOT DUP3 AND OR PUSH1 0x0 SSTORE AND PUSH32 0x8BE0079C531659141344CD1FD0A4F28419497F9722A3DAAFE3B4186F6B6457E0 PUSH1 0x0 DUP1 LOG3 STOP JUMPDEST PUSH32 0x1E4FBDF700000000000000000000000000000000000000000000000000000000 PUSH1 0x0 MSTORE PUSH1 0x0 PUSH1 0x4 MSTORE PUSH1 0x24 PUSH1 0x0 REVERT JUMPDEST PUSH1 0x0 DUP1 REVERT JUMPDEST PUSH1 0x40 CALLDATASIZE PUSH1 0x3 NOT ADD SLT PUSH2 0x127 JUMPI PUSH1 0x4 CALLDATALOAD PUSH8 0xFFFFFFFFFFFFFFFF DUP2 AND DUP1 SWAP2 SUB PUSH2 0x127 JUMPI PUSH1 0x24 CALLDATALOAD SWAP1 PUSH1 0x1 SLOAD SWAP2 PUSH32 0xB0476D9C1D4ABF2F87FD29D4EBA882A93FBAA26856B5D71019E312DD83AA8835 PUSH1 0xA0 PUSH1 0x40 MLOAD PUSH1 0x20 DUP2 ADD SWAP1 DUP7 DUP3 MSTORE PUSH1 0x0 PUSH1 0x40 DUP3 ADD MSTORE CALLVALUE PUSH1 0x60 DUP3 ADD MSTORE DUP5 PUSH1 0x80 DUP3 ADD MSTORE PUSH1 0x80 DUP2 MSTORE PUSH2 0x1A4 DUP4 DUP3 PUSH2 0x7FF JUMP JUMPDEST MLOAD SWAP1 KECCAK256 SWAP4 DUP5 SWAP4 PUSH1 0x40 MLOAD SWAP2 PUSH1 0x0 DUP4 MSTORE PUSH1 0x12 PUSH1 0x20 DUP5 ADD MSTORE CALLVALUE PUSH1 0x40 DUP5 ADD MSTORE PUSH1 0x60 DUP4 ADD MSTORE PUSH1 0x80 DUP3 ADD MSTORE LOG2 PUSH1 0x1 DUP3 ADD DUP1 SWAP3 GT PUSH2 0x1E3 JUMPI PUSH1 0x20 SWAP2 PUSH1 0x1 SSTORE PUSH1 0x40 MLOAD SWAP1 DUP2 MSTORE RETURN JUMPDEST PUSH4 0x4E487B71 PUSH1 0xE0 SHL PUSH1 0x0 MSTORE PUSH1 0x11 PUSH1 0x4 MSTORE PUSH1 0x24 PUSH1 0x0 REVERT JUMPDEST CALLVALUE PUSH2 0x127 JUMPI PUSH1 0x0 CALLDATASIZE PUSH1 0x3 NOT ADD SLT PUSH2 0x127 JUMPI PUSH1 0x20 PUSH1 0x1 SLOAD PUSH1 0x40 MLOAD SWAP1 DUP2 MSTORE RETURN JUMPDEST CALLVALUE PUSH2 0x127 JUMPI PUSH1 0xE0 CALLDATASIZE PUSH1 0x3 NOT ADD SLT PUSH2 0x127 JUMPI PUSH1 0x24 CALLDATALOAD PUSH2 0x233 PUSH2 0x7E8 JUMP JUMPDEST PUSH1 0x64 CALLDATALOAD SWAP1 PUSH1 0x1 PUSH1 0x1 PUSH1 0xA0 SHL SUB DUP3 AND DUP1 SWAP3 SUB PUSH2 0x127 JUMPI PUSH1 0x84 CALLDATALOAD SWAP3 PUSH1 0xFF DUP5 AND SWAP4 DUP5 DUP2 SUB PUSH2 0x127 JUMPI PUSH1 0xA4 CALLDATALOAD PUSH1 0xC4 CALLDATALOAD SWAP6 PUSH1 0x1 PUSH1 0x1 PUSH1 0xA0 SHL SUB DUP8 AND SWAP3 DUP4 DUP9 SUB PUSH2 0x127 JUMPI PUSH1 0x1 PUSH1 0x1 PUSH1 0xA0 SHL SUB PUSH1 0x2 SLOAD AND CALLER SUB PUSH2 0x127 JUMPI DUP7 ISZERO SWAP8 DUP9 ISZERO PUSH2 0x500 JUMPI PUSH2 0x29C SWAP1 PUSH1 0x12 SWAP3 JUMPDEST DUP6 DUP10 DUP10 PUSH2 0x868 JUMP JUMPDEST SWAP8 DUP9 PUSH1 0x0 MSTORE PUSH1 0x3 PUSH1 0x20 MSTORE PUSH1 0xFF PUSH1 0x40 PUSH1 0x0 KECCAK256 SLOAD AND PUSH2 0x4A2 JUMPI PUSH1 0xFF PUSH1 0x40 MLOAD SWAP3 PUSH32 0x8085A82C00000000000000000000000000000000000000000000000000000000 DUP5 MSTORE DUP6 PUSH1 0x4 DUP6 ADD MSTORE DUP5 PUSH1 0x24 DUP6 ADD MSTORE AND PUSH1 0x44 DUP4 ADD MSTORE PUSH1 0x20 DUP3 PUSH1 0x64 DUP2 PUSH20 0x0 GAS DELEGATECALL SWAP2 DUP3 ISZERO PUSH2 0x3A8 JUMPI PUSH1 0x0 SWAP3 PUSH2 0x46B JUMPI JUMPDEST POP ISZERO PUSH2 0x3BD JUMPI PUSH1 0x0 DUP1 DUP1 DUP1 SWAP4 DUP8 DUP3 DUP3 ISZERO PUSH2 0x3B4 JUMPI JUMPDEST CALL ISZERO PUSH2 0x3A8 JUMPI PUSH32 0x37599FDA9FB8025B1643BF229602C851306B15CE91B5066FEA95524E2CDBF205 SWAP6 PUSH8 0xFFFFFFFFFFFFFFFF PUSH1 0xE0 SWAP7 JUMPDEST PUSH1 0x40 MLOAD SWAP7 PUSH1 0x4 CALLDATALOAD DUP9 MSTORE PUSH1 0x20 DUP9 ADD MSTORE AND PUSH1 0x40 DUP7 ADD MSTORE PUSH1 0x60 DUP6 ADD MSTORE PUSH1 0x80 DUP5 ADD MSTORE PUSH1 0xA0 DUP4 ADD MSTORE PUSH1 0xC0 DUP3 ADD MSTORE LOG1 PUSH1 0x0 SWAP1 DUP2 MSTORE PUSH1 0x3 PUSH1 0x20 MSTORE PUSH1 0x40 SWAP1 KECCAK256 DUP1 SLOAD PUSH1 0xFF NOT AND PUSH1 0x1 OR SWAP1 SSTORE STOP JUMPDEST PUSH1 0x40 MLOAD RETURNDATASIZE PUSH1 0x0 DUP3 RETURNDATACOPY RETURNDATASIZE SWAP1 REVERT JUMPDEST POP PUSH2 0x8FC PUSH2 0x32F JUMP JUMPDEST SWAP5 SWAP6 PUSH1 0x40 MLOAD SWAP6 PUSH32 0xA9059CBB00000000000000000000000000000000000000000000000000000000 DUP8 MSTORE DUP5 PUSH1 0x4 DUP9 ADD MSTORE PUSH1 0x24 DUP8 ADD MSTORE PUSH1 0x20 DUP7 PUSH1 0x44 DUP2 PUSH1 0x0 DUP6 GAS CALL DUP1 ISZERO PUSH2 0x3A8 JUMPI PUSH32 0x37599FDA9FB8025B1643BF229602C851306B15CE91B5066FEA95524E2CDBF205 SWAP8 PUSH1 0xE0 SWAP8 PUSH8 0xFFFFFFFFFFFFFFFF SWAP3 PUSH2 0x43C JUMPI JUMPDEST POP PUSH2 0x364 JUMP JUMPDEST PUSH2 0x45D SWAP1 PUSH1 0x20 RETURNDATASIZE PUSH1 0x20 GT PUSH2 0x464 JUMPI JUMPDEST PUSH2 0x455 DUP2 DUP4 PUSH2 0x7FF JUMP JUMPDEST DUP2 ADD SWAP1 PUSH2 0x850 JUMP JUMPDEST POP DUP11 PUSH2 0x436 JUMP JUMPDEST POP RETURNDATASIZE PUSH2 0x44B JUMP JUMPDEST SWAP1 SWAP2 PUSH1 0x20 DUP3 RETURNDATASIZE PUSH1 0x20 GT PUSH2 0x49A JUMPI JUMPDEST DUP2 PUSH2 0x486 PUSH1 0x20 SWAP4 DUP4 PUSH2 0x7FF JUMP JUMPDEST DUP2 ADD SUB SLT PUSH2 0x497 JUMPI POP MLOAD SWAP1 DUP10 PUSH2 0x31A JUMP JUMPDEST DUP1 REVERT JUMPDEST RETURNDATASIZE SWAP2 POP PUSH2 0x479 JUMP JUMPDEST PUSH1 0x64 PUSH1 0x40 MLOAD PUSH32 0x8C379A000000000000000000000000000000000000000000000000000000000 DUP2 MSTORE PUSH1 0x20 PUSH1 0x4 DUP3 ADD MSTORE PUSH1 0xF PUSH1 0x24 DUP3 ADD MSTORE PUSH32 0x414C52454144595F434C41494D45440000000000000000000000000000000000 PUSH1 0x44 DUP3 ADD MSTORE REVERT JUMPDEST PUSH1 0x40 MLOAD SWAP1 PUSH4 0x313CE567 PUSH1 0xE0 SHL DUP3 MSTORE PUSH1 0x20 DUP3 PUSH1 0x4 DUP2 DUP13 GAS STATICCALL DUP1 ISZERO PUSH2 0x3A8 JUMPI PUSH2 0x29C SWAP3 PUSH1 0x0 SWAP2 PUSH2 0x530 JUMPI JUMPDEST POP SWAP3 PUSH2 0x294 JUMP JUMPDEST PUSH2 0x552 SWAP2 POP PUSH1 0x20 RETURNDATASIZE PUSH1 0x20 GT PUSH2 0x558 JUMPI JUMPDEST PUSH2 0x54A DUP2 DUP4 PUSH2 0x7FF JUMP JUMPDEST DUP2 ADD SWAP1 PUSH2 0x837 JUMP JUMPDEST DUP12 PUSH2 0x529 JUMP JUMPDEST POP RETURNDATASIZE PUSH2 0x540 JUMP JUMPDEST CALLVALUE PUSH2 0x127 JUMPI PUSH1 0xA0 CALLDATASIZE PUSH1 0x3 NOT ADD SLT PUSH2 0x127 JUMPI PUSH1 0x24 CALLDATALOAD PUSH8 0xFFFFFFFFFFFFFFFF DUP2 AND DUP2 SUB PUSH2 0x127 JUMPI PUSH1 0x64 CALLDATALOAD SWAP1 PUSH1 0xFF DUP3 AND DUP3 SUB PUSH2 0x127 JUMPI PUSH1 0x84 CALLDATALOAD PUSH1 0x1 PUSH1 0x1 PUSH1 0xA0 SHL SUB DUP2 AND DUP2 SUB PUSH2 0x127 JUMPI PUSH1 0x20 SWAP3 PUSH2 0x5B8 SWAP3 PUSH1 0x44 CALLDATALOAD SWAP1 PUSH1 0x4 CALLDATALOAD PUSH2 0x868 JUMP JUMPDEST PUSH1 0x40 MLOAD SWAP1 DUP2 MSTORE RETURN JUMPDEST CALLVALUE PUSH2 0x127 JUMPI PUSH1 0x0 CALLDATASIZE PUSH1 0x3 NOT ADD SLT PUSH2 0x127 JUMPI PUSH1 0x20 PUSH1 0x1 PUSH1 0x1 PUSH1 0xA0 SHL SUB PUSH1 0x0 SLOAD AND PUSH1 0x40 MLOAD SWAP1 DUP2 MSTORE RETURN JUMPDEST CALLVALUE PUSH2 0x127 JUMPI PUSH1 0x80 CALLDATASIZE PUSH1 0x3 NOT ADD SLT PUSH2 0x127 JUMPI PUSH2 0x600 PUSH2 0x7D2 JUMP JUMPDEST PUSH1 0x24 CALLDATALOAD SWAP1 PUSH2 0x60C PUSH2 0x7E8 JUMP JUMPDEST PUSH1 0x1 PUSH1 0x1 PUSH1 0xA0 SHL SUB PUSH1 0x64 CALLDATALOAD SWAP3 AND SWAP1 PUSH1 0x40 MLOAD SWAP2 PUSH4 0x313CE567 PUSH1 0xE0 SHL DUP4 MSTORE PUSH1 0x20 DUP4 PUSH1 0x4 DUP2 DUP5 GAS STATICCALL SWAP3 DUP4 ISZERO PUSH2 0x3A8 JUMPI PUSH1 0x0 SWAP4 PUSH2 0x74B JUMPI JUMPDEST POP PUSH1 0x40 MLOAD SWAP1 PUSH32 0x23B872DD00000000000000000000000000000000000000000000000000000000 DUP3 MSTORE CALLER PUSH1 0x4 DUP4 ADD MSTORE ADDRESS PUSH1 0x24 DUP4 ADD MSTORE DUP6 PUSH1 0x44 DUP4 ADD MSTORE PUSH1 0x20 DUP3 PUSH1 0x64 DUP2 PUSH1 0x0 DUP6 GAS CALL SWAP5 DUP6 ISZERO PUSH2 0x3A8 JUMPI PUSH8 0xFFFFFFFFFFFFFFFF PUSH32 0xB0476D9C1D4ABF2F87FD29D4EBA882A93FBAA26856B5D71019E312DD83AA8835 SWAP5 PUSH1 0xA0 SWAP5 PUSH1 0xFF SWAP9 PUSH2 0x72E JUMPI JUMPDEST POP PUSH1 0x1 SLOAD SWAP9 PUSH1 0x40 MLOAD PUSH1 0x20 DUP2 ADD SWAP1 DUP12 DUP3 MSTORE DUP7 PUSH1 0x40 DUP3 ADD MSTORE DUP3 PUSH1 0x60 DUP3 ADD MSTORE DUP6 PUSH1 0x80 DUP3 ADD MSTORE PUSH1 0x80 DUP2 MSTORE PUSH2 0x6F2 DUP9 DUP3 PUSH2 0x7FF JUMP JUMPDEST MLOAD SWAP1 KECCAK256 SWAP9 DUP10 SWAP9 PUSH1 0x40 MLOAD SWAP7 DUP8 MSTORE AND PUSH1 0x20 DUP7 ADD MSTORE PUSH1 0x40 DUP6 ADD MSTORE AND PUSH1 0x60 DUP4 ADD MSTORE PUSH1 0x80 DUP3 ADD MSTORE LOG2 PUSH1 0x1 DUP3 ADD DUP1 SWAP3 GT PUSH2 0x1E3 JUMPI PUSH1 0x20 SWAP2 PUSH1 0x1 SSTORE PUSH1 0x40 MLOAD SWAP1 DUP2 MSTORE RETURN JUMPDEST PUSH2 0x746 SWAP1 PUSH1 0x20 RETURNDATASIZE PUSH1 0x20 GT PUSH2 0x464 JUMPI PUSH2 0x455 DUP2 DUP4 PUSH2 0x7FF JUMP JUMPDEST PUSH2 0x6C2 JUMP JUMPDEST PUSH2 0x765 SWAP2 SWAP4 POP PUSH1 0x20 RETURNDATASIZE PUSH1 0x20 GT PUSH2 0x558 JUMPI PUSH2 0x54A DUP2 DUP4 PUSH2 0x7FF JUMP JUMPDEST SWAP2 DUP6 PUSH2 0x640 JUMP JUMPDEST CALLVALUE PUSH2 0x127 JUMPI PUSH1 0x0 CALLDATASIZE PUSH1 0x3 NOT ADD SLT PUSH2 0x127 JUMPI PUSH2 0x785 PUSH2 0x8B7 JUMP JUMPDEST PUSH1 0x0 PUSH1 0x1 PUSH1 0x1 PUSH1 0xA0 SHL SUB DUP2 SLOAD PUSH20 0xFFFFFFFFFFFFFFFFFFFFFFFFFFFFFFFFFFFFFFFF NOT DUP2 AND DUP4 SSTORE AND PUSH32 0x8BE0079C531659141344CD1FD0A4F28419497F9722A3DAAFE3B4186F6B6457E0 DUP3 DUP1 LOG3 STOP JUMPDEST PUSH1 0x4 CALLDATALOAD SWAP1 PUSH1 0x1 PUSH1 0x1 PUSH1 0xA0 SHL SUB DUP3 AND DUP3 SUB PUSH2 0x127 JUMPI JUMP JUMPDEST PUSH1 0x44 CALLDATALOAD SWAP1 PUSH8 0xFFFFFFFFFFFFFFFF DUP3 AND DUP3 SUB PUSH2 0x127 JUMPI JUMP JUMPDEST SWAP1 PUSH1 0x1F DUP1 NOT SWAP2 ADD AND DUP2 ADD SWAP1 DUP2 LT PUSH8 0xFFFFFFFFFFFFFFFF DUP3 GT OR PUSH2 0x821 JUMPI PUSH1 0x40 MSTORE JUMP JUMPDEST PUSH4 0x4E487B71 PUSH1 0xE0 SHL PUSH1 0x0 MSTORE PUSH1 0x41 PUSH1 0x4 MSTORE PUSH1 0x24 PUSH1 0x0 REVERT JUMPDEST SWAP1 DUP2 PUSH1 0x20 SWAP2 SUB SLT PUSH2 0x127 JUMPI MLOAD PUSH1 0xFF DUP2 AND DUP2 SUB PUSH2 0x127 JUMPI SWAP1 JUMP JUMPDEST SWAP1 DUP2 PUSH1 0x20 SWAP2 SUB SLT PUSH2 0x127 JUMPI MLOAD DUP1 ISZERO ISZERO DUP2 SUB PUSH2 0x127 JUMPI SWAP1 JUMP JUMPDEST SWAP4 SWAP1 SWAP3 PUSH1 0xFF SWAP1 PUSH1 0x1 PUSH1 0x1 PUSH1 0xA0 SHL SUB SWAP4 PUSH8 0xFFFFFFFFFFFFFFFF PUSH1 0x40 MLOAD SWAP7 PUSH1 0x20 DUP9 ADD SWAP9 DUP10 MSTORE AND PUSH1 0x40 DUP8 ADD MSTORE PUSH1 0x60 DUP7 ADD MSTORE AND PUSH1 0x80 DUP5 ADD MSTORE AND PUSH1 0xA0 DUP3 ADD MSTORE PUSH1 0xA0 DUP2 MSTORE PUSH2 0x8B1 PUSH1 0xC0 DUP3 PUSH2 0x7FF JUMP JUMPDEST MLOAD SWAP1 KECCAK256 SWAP1 JUMP JUMPDEST PUSH1 0x1 PUSH1 0x1 PUSH1 0xA0 SHL SUB PUSH1 0x0 SLOAD AND CALLER SUB PUSH2 0x8CB JUMPI JUMP JUMPDEST PUSH32 0x118CDAA700000000000000000000000000000000000000000000000000000000 PUSH1 0x0 MSTORE CALLER PUSH1 0x4 MSTORE PUSH1 0x24 PUSH1 0x0 REVERT INVALID LOG2 PUSH5 0x6970667358 0x22 SLT KECCAK256 0xBB 0xD3 POP 0xA5 PUSH17 0xEA2ECF6B824FD3C9B2BC320C2B2DA733F3 0xF6 GT 0xE4 CALL 0x22 0xE0 DIV PUSH28 0xA4F464736F6C634300081C0033000000000000000000000000000000 "
        },
        "methodIdentifiers": {
          "attestTokenClaim(bytes32,bytes32,uint64,address,uint8,uint256,address)": "cd551abd",
          "getClaimRoot(bytes32,uint64,uint256,uint8,address)": "9baddcf1",
          "getNonce()": "d087d288",
          "owner()": "8da5cb5b",
          "renounceOwnership()": "715018a6",
          "tokenTransfer(address,uint256,uint64,bytes32)": "7fca0a08",
          "tokenTransferETH(uint64,bytes32)": "d53980f0",
          "transferOwnership(address)": "f2fde38b"
        }
      }
    }
  }
}